{
  "contractName": "KnownOriginDigitalAsset",
  "abi": [
    {
      "constant": true,
      "inputs": [],
      "name": "name",
      "outputs": [
        {
          "name": "_name",
          "type": "string"
        }
      ],
      "payable": false,
      "stateMutability": "view",
      "type": "function"
    },
    {
      "constant": true,
      "inputs": [
        {
          "name": "_tokenId",
          "type": "uint256"
        }
      ],
      "name": "getApproved",
      "outputs": [
        {
          "name": "_approved",
          "type": "address"
        }
      ],
      "payable": false,
      "stateMutability": "view",
      "type": "function"
    },
    {
      "constant": false,
      "inputs": [
        {
          "name": "_to",
          "type": "address"
        },
        {
          "name": "_tokenId",
          "type": "uint256"
        }
      ],
      "name": "approve",
      "outputs": [],
      "payable": false,
      "stateMutability": "nonpayable",
      "type": "function"
    },
    {
      "constant": true,
      "inputs": [],
      "name": "implementsERC721",
      "outputs": [
        {
          "name": "_implementsERC721",
          "type": "bool"
        }
      ],
      "payable": false,
      "stateMutability": "view",
      "type": "function"
    },
    {
      "constant": true,
      "inputs": [],
      "name": "totalSupply",
      "outputs": [
        {
          "name": "_totalSupply",
          "type": "uint256"
        }
      ],
      "payable": false,
      "stateMutability": "view",
      "type": "function"
    },
    {
      "constant": false,
      "inputs": [
        {
          "name": "_from",
          "type": "address"
        },
        {
          "name": "_to",
          "type": "address"
        },
        {
          "name": "_tokenId",
          "type": "uint256"
        }
      ],
      "name": "transferFrom",
      "outputs": [],
      "payable": false,
      "stateMutability": "nonpayable",
      "type": "function"
    },
    {
      "constant": true,
      "inputs": [],
      "name": "totalPurchaseValueInWei",
      "outputs": [
        {
          "name": "",
          "type": "uint256"
        }
      ],
      "payable": false,
      "stateMutability": "view",
      "type": "function"
    },
    {
      "constant": true,
      "inputs": [
        {
          "name": "_owner",
          "type": "address"
        },
        {
          "name": "_index",
          "type": "uint256"
        }
      ],
      "name": "tokenOfOwnerByIndex",
      "outputs": [
        {
          "name": "_tokenId",
          "type": "uint256"
        }
      ],
      "payable": false,
      "stateMutability": "view",
      "type": "function"
    },
    {
      "constant": true,
      "inputs": [],
      "name": "totalNumberOfPurchases",
      "outputs": [
        {
          "name": "",
          "type": "uint256"
        }
      ],
      "payable": false,
      "stateMutability": "view",
      "type": "function"
    },
    {
      "constant": true,
      "inputs": [
        {
          "name": "_tokenId",
          "type": "uint256"
        }
      ],
      "name": "ownerOf",
      "outputs": [
        {
          "name": "_owner",
          "type": "address"
        }
      ],
      "payable": false,
      "stateMutability": "view",
      "type": "function"
    },
    {
      "constant": true,
      "inputs": [
        {
          "name": "_tokenId",
          "type": "uint256"
        }
      ],
      "name": "tokenMetadata",
      "outputs": [
        {
          "name": "_infoUrl",
          "type": "string"
        }
      ],
      "payable": false,
      "stateMutability": "view",
      "type": "function"
    },
    {
      "constant": true,
      "inputs": [
        {
          "name": "_owner",
          "type": "address"
        }
      ],
      "name": "balanceOf",
      "outputs": [
        {
          "name": "_balance",
          "type": "uint256"
        }
      ],
      "payable": false,
      "stateMutability": "view",
      "type": "function"
    },
    {
      "constant": true,
      "inputs": [],
      "name": "symbol",
      "outputs": [
        {
          "name": "_symbol",
          "type": "string"
        }
      ],
      "payable": false,
      "stateMutability": "view",
      "type": "function"
    },
    {
      "constant": true,
      "inputs": [],
      "name": "contractDeveloper",
      "outputs": [
        {
          "name": "",
          "type": "address"
        }
      ],
      "payable": false,
      "stateMutability": "view",
      "type": "function"
    },
    {
      "constant": false,
      "inputs": [
        {
          "name": "_to",
          "type": "address"
        },
        {
          "name": "_tokenId",
          "type": "uint256"
        }
      ],
      "name": "transfer",
      "outputs": [],
      "payable": false,
      "stateMutability": "nonpayable",
      "type": "function"
    },
    {
      "constant": true,
      "inputs": [],
      "name": "numTokensTotal",
      "outputs": [
        {
          "name": "",
          "type": "uint256"
        }
      ],
      "payable": false,
      "stateMutability": "view",
      "type": "function"
    },
    {
      "constant": true,
      "inputs": [
        {
          "name": "_owner",
          "type": "address"
        }
      ],
      "name": "getOwnerTokens",
      "outputs": [
        {
          "name": "_tokenIds",
          "type": "uint256[]"
        }
      ],
      "payable": false,
      "stateMutability": "view",
      "type": "function"
    },
    {
      "constant": true,
      "inputs": [],
      "name": "curator",
      "outputs": [
        {
          "name": "",
          "type": "address"
        }
      ],
      "payable": false,
      "stateMutability": "view",
      "type": "function"
    },
    {
      "constant": true,
      "inputs": [],
      "name": "commissionAccount",
      "outputs": [
        {
          "name": "",
          "type": "address"
        }
      ],
      "payable": false,
      "stateMutability": "view",
      "type": "function"
    },
    {
      "inputs": [
        {
          "name": "_commissionAccount",
          "type": "address"
        },
        {
          "name": "_contractDeveloper",
          "type": "address"
        }
      ],
      "payable": false,
      "stateMutability": "nonpayable",
      "type": "constructor"
    },
    {
      "anonymous": false,
      "inputs": [
        {
          "indexed": true,
          "name": "_tokenId",
          "type": "uint256"
        },
        {
          "indexed": true,
          "name": "_buyer",
          "type": "address"
        }
      ],
      "name": "PurchasedWithEther",
      "type": "event"
    },
    {
      "anonymous": false,
      "inputs": [
        {
          "indexed": true,
          "name": "_tokenId",
          "type": "uint256"
        }
      ],
      "name": "PurchasedWithFiat",
      "type": "event"
    },
    {
      "anonymous": false,
      "inputs": [
        {
          "indexed": true,
          "name": "_tokenId",
          "type": "uint256"
        }
      ],
      "name": "PurchasedWithFiatReversed",
      "type": "event"
    },
    {
      "anonymous": false,
      "inputs": [
        {
          "indexed": true,
          "name": "_to",
          "type": "address"
        },
        {
          "indexed": true,
          "name": "_tokenId",
          "type": "uint256"
        }
      ],
      "name": "Mint",
      "type": "event"
    },
    {
      "anonymous": false,
      "inputs": [
        {
          "indexed": true,
          "name": "_from",
          "type": "address"
        },
        {
          "indexed": true,
          "name": "_to",
          "type": "address"
        },
        {
          "indexed": false,
          "name": "_tokenId",
          "type": "uint256"
        }
      ],
      "name": "Transfer",
      "type": "event"
    },
    {
      "anonymous": false,
      "inputs": [
        {
          "indexed": true,
          "name": "_owner",
          "type": "address"
        },
        {
          "indexed": true,
          "name": "_approved",
          "type": "address"
        },
        {
          "indexed": false,
          "name": "_tokenId",
          "type": "uint256"
        }
      ],
      "name": "Approval",
      "type": "event"
    },
    {
      "constant": false,
      "inputs": [
        {
          "name": "_metadata",
          "type": "string"
        },
        {
          "name": "_edition",
          "type": "string"
        },
        {
          "name": "_artist",
          "type": "string"
        },
        {
          "name": "_editionName",
          "type": "string"
        },
        {
          "name": "_type",
          "type": "string"
        },
        {
          "name": "_totalEdition",
          "type": "uint8"
        },
        {
          "name": "_priceInWei",
          "type": "uint256"
        },
        {
          "name": "_auctionStartDate",
          "type": "uint256"
        }
      ],
      "name": "mintEdition",
      "outputs": [],
      "payable": false,
      "stateMutability": "nonpayable",
      "type": "function"
    },
    {
      "constant": false,
      "inputs": [
        {
          "name": "_metadata",
          "type": "string"
        },
        {
          "name": "_edition",
          "type": "string"
        },
        {
          "name": "_artist",
          "type": "string"
        },
        {
          "name": "_editionName",
          "type": "string"
        },
        {
          "name": "_type",
          "type": "string"
        },
        {
          "name": "_priceInWei",
          "type": "uint256"
        },
        {
          "name": "_auctionStartDate",
          "type": "uint256"
        }
      ],
      "name": "mint",
      "outputs": [],
      "payable": false,
      "stateMutability": "nonpayable",
      "type": "function"
    },
    {
      "constant": true,
      "inputs": [
        {
          "name": "_tokenId",
          "type": "uint256"
        }
      ],
      "name": "isPurchased",
      "outputs": [
        {
          "name": "_purchased",
          "type": "uint8"
        }
      ],
      "payable": false,
      "stateMutability": "view",
      "type": "function"
    },
    {
      "constant": true,
      "inputs": [
        {
          "name": "_tokenId",
          "type": "uint256"
        }
      ],
      "name": "editionOf",
      "outputs": [
        {
          "name": "_edition",
          "type": "string"
        }
      ],
      "payable": false,
      "stateMutability": "view",
      "type": "function"
    },
    {
      "constant": true,
      "inputs": [
        {
          "name": "_tokenId",
          "type": "uint256"
        }
      ],
      "name": "auctionOpened",
      "outputs": [
        {
          "name": "",
          "type": "bool"
        }
      ],
      "payable": false,
      "stateMutability": "view",
      "type": "function"
    },
    {
      "constant": true,
      "inputs": [
        {
          "name": "_tokenId",
          "type": "uint256"
        }
      ],
      "name": "tokenAuctionOpenDate",
      "outputs": [
        {
          "name": "_auctionStartDate",
          "type": "uint256"
        }
      ],
      "payable": false,
      "stateMutability": "view",
      "type": "function"
    },
    {
      "constant": true,
      "inputs": [],
      "name": "getNow",
      "outputs": [
        {
          "name": "",
          "type": "uint256"
        }
      ],
      "payable": false,
      "stateMutability": "view",
      "type": "function"
    },
    {
      "constant": true,
      "inputs": [
        {
          "name": "_tokenId",
          "type": "uint256"
        }
      ],
      "name": "priceOfInWei",
      "outputs": [
        {
          "name": "_priceInWei",
          "type": "uint256"
        }
      ],
      "payable": false,
      "stateMutability": "view",
      "type": "function"
    },
    {
      "constant": false,
      "inputs": [
        {
          "name": "_tokenId",
          "type": "uint256"
        },
        {
          "name": "_priceInWei",
          "type": "uint256"
        }
      ],
      "name": "setPriceInWei",
      "outputs": [
        {
          "name": "",
          "type": "bool"
        }
      ],
      "payable": false,
      "stateMutability": "nonpayable",
      "type": "function"
    },
    {
      "constant": false,
      "inputs": [
        {
          "name": "_tokenId",
          "type": "uint256"
        }
      ],
      "name": "purchaseWithEther",
      "outputs": [
        {
          "name": "",
          "type": "bool"
        }
      ],
      "payable": true,
      "stateMutability": "payable",
      "type": "function"
    },
    {
      "constant": false,
      "inputs": [
        {
          "name": "_tokenId",
          "type": "uint256"
        }
      ],
      "name": "purchaseWithFiat",
      "outputs": [
        {
          "name": "",
          "type": "bool"
        }
      ],
      "payable": false,
      "stateMutability": "nonpayable",
      "type": "function"
    },
    {
      "constant": false,
      "inputs": [
        {
          "name": "_tokenId",
          "type": "uint256"
        }
      ],
      "name": "reverseFiatPurchase",
      "outputs": [
        {
          "name": "",
          "type": "bool"
        }
      ],
      "payable": false,
      "stateMutability": "nonpayable",
      "type": "function"
    },
    {
      "constant": true,
      "inputs": [
        {
          "name": "_tokenId",
          "type": "uint256"
        }
      ],
      "name": "assetInfo",
      "outputs": [
        {
          "name": "_tokId",
          "type": "uint256"
        },
        {
          "name": "_owner",
          "type": "address"
        },
        {
          "name": "_purchaseState",
          "type": "uint8"
        },
        {
          "name": "_priceInWei",
          "type": "uint256"
        },
        {
          "name": "_auctionStartDate",
          "type": "uint256"
        }
      ],
      "payable": false,
      "stateMutability": "view",
      "type": "function"
    },
    {
      "constant": true,
      "inputs": [
        {
          "name": "_tokenId",
          "type": "uint256"
        }
      ],
      "name": "editionInfo",
      "outputs": [
        {
          "name": "_tokId",
          "type": "uint256"
        },
        {
          "name": "_type",
          "type": "string"
        },
        {
          "name": "_edition",
          "type": "string"
        },
        {
          "name": "_editionName",
          "type": "string"
        },
        {
          "name": "_editionNumber",
          "type": "uint8"
        },
        {
          "name": "_artist",
          "type": "string"
        },
        {
          "name": "_metadata",
          "type": "string"
        }
      ],
      "payable": false,
      "stateMutability": "view",
      "type": "function"
    }
  ],
  "bytecode": "0x606060405234156200001057600080fd5b60405160408062002286833981016040528080519190602001805160088054600160a060020a03338116600160a060020a03199283161790925560098054838516908316179055600a8054928716929091169190911790559150604090508051908101604052601781527f4b6e6f776e4f726967696e4469676974616c417373657400000000000000000060208201526000908051620000b592916020019062000108565b5060408051908101604052600481527f4b4f44410000000000000000000000000000000000000000000000000000000060208201526001908051620000ff92916020019062000108565b505050620001ad565b828054600181600116156101000203166002900490600052602060002090601f016020900481019282601f106200014b57805160ff19168380011785556200017b565b828001600101855582156200017b579182015b828111156200017b5782518255916020019190600101906200015e565b50620001899291506200018d565b5090565b620001aa91905b8082111562000189576000815560010162000194565b90565b6120c980620001bd6000396000f3006060604052600436106101a05763ffffffff7c010000000000000000000000000000000000000000000000000000000060003504166306fdde0381146101a5578063081812fc1461022f578063095ea7b3146102615780631051db34146102855780631498e46b146102ac57806318160ddd1461041557806318714bc81461043a57806323b872dd146104505780632bbd84e8146104785780632c9f4f621461048b5780632f745c59146104c5578063311f0111146104e75780634082b499146106475780634be185f01461065a5780636352211e146106705780636914db60146106865780636a0996811461069c57806370a08231146106b25780637e298249146106d15780637e38b424146106ea5780638d4137bd1461070057806395d89b4114610716578063a497229b14610729578063a5d4f4ba1461073f578063a879fcbb14610752578063a9059cbb146107b1578063a92ca27d146107d3578063af129dc214610a19578063bbe4fd5014610a2c578063d63d4af014610a3f578063e66f53b714610ab1578063ed70994b14610ac4578063f4ce7c1c14610ad7575b600080fd5b34156101b057600080fd5b6101b8610ae2565b60405160208082528190810183818151815260200191508051906020019080838360005b838110156101f45780820151838201526020016101dc565b50505050905090810190601f1680156102215780820380516001836020036101000a031916815260200191505b509250505060405180910390f35b341561023a57600080fd5b610245600435610b8b565b604051600160a060020a03909116815260200160405180910390f35b341561026c57600080fd5b610283600160a060020a0360043516602435610b9c565b005b341561029057600080fd5b610298610c78565b604051901515815260200160405180910390f35b34156102b757600080fd5b61028360046024813581810190830135806020601f8201819004810201604051908101604052818152929190602084018383808284378201915050505050509190803590602001908201803590602001908080601f01602080910402602001604051908101604052818152929190602084018383808284378201915050505050509190803590602001908201803590602001908080601f01602080910402602001604051908101604052818152929190602084018383808284378201915050505050509190803590602001908201803590602001908080601f01602080910402602001604051908101604052818152929190602084018383808284378201915050505050509190803590602001908201803590602001908080601f0160208091040260200160405190810160405281815292919060208401838380828437509496505060ff8535169460208101359450604001359250610c7d915050565b341561042057600080fd5b610428610db1565b60405190815260200160405180910390f35b341561044557600080fd5b610298600435610db7565b341561045b57600080fd5b610283600160a060020a0360043581169060243516604435610ea9565b341561048357600080fd5b610428610faf565b341561049657600080fd5b6104a1600435610fb5565b604051808260028111156104b157fe5b60ff16815260200191505060405180910390f35b34156104d057600080fd5b610428600160a060020a0360043516602435610fca565b34156104f257600080fd5b61028360046024813581810190830135806020601f8201819004810201604051908101604052818152929190602084018383808284378201915050505050509190803590602001908201803590602001908080601f01602080910402602001604051908101604052818152929190602084018383808284378201915050505050509190803590602001908201803590602001908080601f01602080910402602001604051908101604052818152929190602084018383808284378201915050505050509190803590602001908201803590602001908080601f01602080910402602001604051908101604052818152929190602084018383808284378201915050505050509190803590602001908201803590602001908080601f01602080910402602001604051908101604052818152929190602084018383808284375094965050843594602001359350610fdd92505050565b341561065257600080fd5b6104286110df565b341561066557600080fd5b6101b86004356110e5565b341561067b57600080fd5b6102456004356111a0565b341561069157600080fd5b6101b86004356111ab565b34156106a757600080fd5b61042860043561122f565b34156106bd57600080fd5b610428600160a060020a0360043516611241565b34156106dc57600080fd5b61029860043560243561125c565b34156106f557600080fd5b6102986004356112e6565b341561070b57600080fd5b6102986004356113d4565b341561072157600080fd5b6101b86113ea565b341561073457600080fd5b61042860043561145d565b341561074a57600080fd5b61024561146f565b341561075d57600080fd5b61076860043561147e565b604051858152600160a060020a03851660208201526040810184600281111561078d57fe5b60ff1681526020018381526020018281526020019550505050505060405180910390f35b34156107bc57600080fd5b610283600160a060020a03600435166024356114c0565b34156107de57600080fd5b6107e960043561159f565b604051808881526020018060200180602001806020018760ff1660ff168152602001806020018060200186810386528c818151815260200191508051906020019080838360005b83811015610848578082015183820152602001610830565b50505050905090810190601f1680156108755780820380516001836020036101000a031916815260200191505b5086810385528b818151815260200191508051906020019080838360005b838110156108ab578082015183820152602001610893565b50505050905090810190601f1680156108d85780820380516001836020036101000a031916815260200191505b5086810384528a818151815260200191508051906020019080838360005b8381101561090e5780820151838201526020016108f6565b50505050905090810190601f16801561093b5780820380516001836020036101000a031916815260200191505b50868103835288818151815260200191508051906020019080838360005b83811015610971578082015183820152602001610959565b50505050905090810190601f16801561099e5780820380516001836020036101000a031916815260200191505b50868103825287818151815260200191508051906020019080838360005b838110156109d45780820151838201526020016109bc565b50505050905090810190601f168015610a015780820380516001836020036101000a031916815260200191505b509c5050505050505050505050505060405180910390f35b3415610a2457600080fd5b610428611971565b3415610a3757600080fd5b610428611977565b3415610a4a57600080fd5b610a5e600160a060020a036004351661197b565b60405160208082528190810183818151815260200191508051906020019060200280838360005b83811015610a9d578082015183820152602001610a85565b505050509050019250505060405180910390f35b3415610abc57600080fd5b61024561198c565b3415610acf57600080fd5b61024561199b565b6102986004356119aa565b610aea611fb3565b60008054600181600116156101000203166002900480601f016020809104026020016040519081016040528092919081815260200182805460018160011615610100020316600290048015610b805780601f10610b5557610100808354040283529160200191610b80565b820191906000526020600020905b815481529060010190602001808311610b6357829003601f168201915b505050505090505b90565b6000610b9682611bca565b92915050565b806000610ba8826111a0565b600160a060020a03161415610bbc57600080fd5b610bc5826111a0565b600160a060020a031633600160a060020a0316141515610be457600080fd5b82600160a060020a031633600160a060020a031614151515610c0557600080fd5b6000610c1083611bca565b600160a060020a0316141580610c2e5750600160a060020a03831615155b15610c7357610c3d8383611be5565b82600160a060020a031633600160a060020a031660008051602061207e8339815191528460405190815260200160405180910390a35b505050565b600190565b6008546000908190819033600160a060020a03908116911614610c9f57600080fd5b6002549250600091505b8560ff168260ff161015610da4575060ff81168201600081815260036020526040902054600160a060020a031615610ce057600080fd5b610ceb33828d611c20565b6000818152600e602052604090208a8051610d0a929160200190611fc5565b506000818152600f60209081526040808320805460ff19166001870160ff16179055601382528083208890556014825280832087905560129091529020878051610d58929160200190611fc5565b506000818152601160205260409020898051610d78929160200190611fc5565b506000818152601060205260409020888051610d98929160200190611fc5565b50600190910190610ca9565b5050505050505050505050565b60025490565b60085460009033600160a060020a03908116911614610dd557600080fd5b81600080828152600d602052604090205460ff166002811115610df457fe5b14610dfe57600080fd5b6008546000848152600360205260409020548491600160a060020a03918216911614610e2957600080fd5b600084815260146020526040902054849042901115610e4757600080fd5b6000858152600d60205260409020805460ff19166002179055600c54610e6e906001611cb6565b600c55847f0bdb01638ac3be385d9ab692cf4661a5777d486d2b58eee4bad9b76374954c7260405160405180910390a2506001949350505050565b806000610eb5826111a0565b600160a060020a03161415610ec957600080fd5b33600160a060020a0316610edc83610b8b565b600160a060020a031614610eef57600080fd5b83600160a060020a0316610f02836111a0565b600160a060020a031614610f1557600080fd5b600160a060020a0383161515610f2a57600080fd5b610f35848484611cc5565b600084600160a060020a031660008051602061207e8339815191528460405190815260200160405180910390a382600160a060020a031684600160a060020a03167fddf252ad1be2c89b69c2b068fc378daa952ba7f163c4a11628f55a4df523b3ef8460405190815260200160405180910390a350505050565b600b5481565b6000908152600d602052604090205460ff1690565b6000610fd68383611cec565b9392505050565b60085460009033600160a060020a03908116911614610ffb57600080fd5b50600254600081815260036020526040902054600160a060020a03161561102157600080fd5b61102c33828a611c20565b6000818152600e6020526040902087805161104b929160200190611fc5565b506000818152600f60209081526040808320805460ff19166001179055601382528083208690556014825280832085905560129091529020848051611094929160200190611fc5565b5060008181526011602052604090208680516110b4929160200190611fc5565b5060008181526010602052604090208580516110d4929160200190611fc5565b505050505050505050565b600c5481565b6110ed611fb3565b600e60008381526020019081526020016000208054600181600116156101000203166002900480601f0160208091040260200160405190810160405280929190818152602001828054600181600116156101000203166002900480156111945780601f1061116957610100808354040283529160200191611194565b820191906000526020600020905b81548152906001019060200180831161117757829003601f168201915b50505050509050919050565b6000610b9682611d24565b6111b3611fb3565b600560008381526020019081526020016000208054600181600116156101000203166002900480601f0160208091040260200160405190810160405280929190818152602001828054600181600116156101000203166002900480156111945780601f1061116957610100808354040283529160200191611194565b60009081526014602052604090205490565b600160a060020a031660009081526006602052604090205490565b60085460009033600160a060020a0390811691161461127a57600080fd5b82600080828152600d602052604090205460ff16600281111561129957fe5b146112a357600080fd5b6008546000858152600360205260409020548591600160a060020a039182169116146112ce57600080fd5b50505060009182526013602052604090912055600190565b60085460009033600160a060020a0390811691161461130457600080fd5b6008546000838152600360205260409020548391600160a060020a0391821691161461132f57600080fd5b60008381526014602052604090205483904290111561134d57600080fd5b60026000858152600d602052604090205460ff16600281111561136c57fe5b1461137657600080fd5b6000848152600d60205260409020805460ff19169055600c5461139a906001611d3f565b600c55837fb86b57a33124aa41b48d51668d80c57a403632f755dc2fb969ca0b0d8aded10a60405160405180910390a25060019392505050565b6000908152601460205260409020544290111590565b6113f2611fb3565b60018054600181600116156101000203166002900480601f016020809104026020016040519081016040528092919081815260200182805460018160011615610100020316600290048015610b805780601f10610b5557610100808354040283529160200191610b80565b60009081526013602052604090205490565b600954600160a060020a031681565b600081815260036020908152604080832054600d8352818420546013845282852054601490945291909320549394600160a060020a039093169360ff90911692565b8060006114cc826111a0565b600160a060020a031614156114e057600080fd5b33600160a060020a03166114f3836111a0565b600160a060020a03161461150657600080fd5b600160a060020a038316151561151b57600080fd5b611526338484611cc5565b600033600160a060020a031660008051602061207e8339815191528460405190815260200160405180910390a382600160a060020a031633600160a060020a03167fddf252ad1be2c89b69c2b068fc378daa952ba7f163c4a11628f55a4df523b3ef8460405190815260200160405180910390a3505050565b60006115a9611fb3565b6115b1611fb3565b6115b9611fb3565b60006115c3611fb3565b6115cb611fb3565b87601260008a8152602001908152602001600020600e60008b8152602001908152602001600020601060008c8152602001908152602001600020600f60008d815260200190815260200160002060009054906101000a900460ff16601160008e8152602001908152602001600020600560008f8152602001908152602001600020858054600181600116156101000203166002900480601f0160208091040260200160405190810160405280929190818152602001828054600181600116156101000203166002900480156116e15780601f106116b6576101008083540402835291602001916116e1565b820191906000526020600020905b8154815290600101906020018083116116c457829003601f168201915b50505050509550848054600181600116156101000203166002900480601f01602080910402602001604051908101604052809291908181526020018280546001816001161561010002031660029004801561177d5780601f106117525761010080835404028352916020019161177d565b820191906000526020600020905b81548152906001019060200180831161176057829003601f168201915b50505050509450838054600181600116156101000203166002900480601f0160208091040260200160405190810160405280929190818152602001828054600181600116156101000203166002900480156118195780601f106117ee57610100808354040283529160200191611819565b820191906000526020600020905b8154815290600101906020018083116117fc57829003601f168201915b50505050509350818054600181600116156101000203166002900480601f0160208091040260200160405190810160405280929190818152602001828054600181600116156101000203166002900480156118b55780601f1061188a576101008083540402835291602001916118b5565b820191906000526020600020905b81548152906001019060200180831161189857829003601f168201915b50505050509150808054600181600116156101000203166002900480601f0160208091040260200160405190810160405280929190818152602001828054600181600116156101000203166002900480156119515780601f1061192657610100808354040283529160200191611951565b820191906000526020600020905b81548152906001019060200180831161193457829003601f168201915b505050505090509650965096509650965096509650919395979092949650565b60025481565b4290565b611983611fb3565b610b9682611d51565b600854600160a060020a031681565b600a54600160a060020a031681565b600080808084816000828152600d602052604090205460ff1660028111156119ce57fe5b146119d857600080fd5b6008546000878152600360205260409020548791600160a060020a03918216911614611a0357600080fd5b600087815260146020526040902054879042901115611a2157600080fd5b6000888152601360205260409020543410611bba57611a403389611be5565b600854600160a060020a03338116911660008051602061207e8339815191528a60405190815260200160405180910390a3600854611a8890600160a060020a0316338a610ea9565b6000888152600d60205260409020805460ff19166001179055600b54611aae9034611cb6565b600b55600c54611ac590600163ffffffff611cb616565b600c55600a54600f60643404029650600160a060020a031686156108fc0287604051600060405180830381858888f193505050501515611b0457600080fd5b600954600f60643404029550600160a060020a031685156108fc0286604051600060405180830381858888f193505050501515611b4057600080fd5b60085486860134039450600160a060020a031684156108fc0285604051600060405180830381858888f193505050501515611b7a57600080fd5b33600160a060020a0316887f3817d9a4b057a227bd53f7fa5d4f61f04e716166b150ff09a06fa830f10cb50160405160405180910390a360019650611bbf565b600096505b505050505050919050565b600090815260046020526040902054600160a060020a031690565b6000908152600460205260409020805473ffffffffffffffffffffffffffffffffffffffff1916600160a060020a0392909216919091179055565b6000828152600360205260409020548290600160a060020a031615611c4457600080fd5b611c4e8385611dd3565b611c588484611e0e565b600254611c6c90600163ffffffff611cb616565b600255611c798383611e75565b8284600160a060020a03167f0f6798a560793a54c3bcfe86a93cde1e73087d944c0ea20544137d412139688560405160405180910390a350505050565b600082820183811015610fd657fe5b611cce81611e94565b611cd88382611ebf565b611ce28183611dd3565b610c738282611e0e565b600160a060020a0382166000908152600660205260408120805483908110611d1057fe5b906000526020600020900154905092915050565b600090815260036020526040902054600160a060020a031690565b600082821115611d4b57fe5b50900390565b611d59611fb3565b6006600083600160a060020a0316600160a060020a0316815260200190815260200160002080548060200260200160405190810160405280929190818152602001828054801561119457602002820191906000526020600020905b815481526020019060010190808311611db45750505050509050919050565b600091825260036020526040909120805473ffffffffffffffffffffffffffffffffffffffff1916600160a060020a03909216919091179055565b600160a060020a0382166000908152600660205260409020805460018101611e368382612043565b506000918252602080832091909101839055600160a060020a039093168152600683526040808220549282526007909352919091206000199091019055565b6000828152600560205260409020818051610c73929160200190611fc5565b6000908152600460205260409020805473ffffffffffffffffffffffffffffffffffffffff19169055565b600160a060020a038216600081815260066020818152604080842080548786526007845291852054958552929091529291906000198401848110611eff57fe5b6000918252602080832090910154600160a060020a0388168352600690915260409091208054919250829184908110611f3457fe5b6000918252602080832090910192909255828152600782526040808220859055600160a060020a038816825260069092522080546000198501908110611f7657fe5b60009182526020808320909101829055600160a060020a03871682526006905260409020805490611fab906000198301612043565b505050505050565b60206040519081016040526000815290565b828054600181600116156101000203166002900490600052602060002090601f016020900481019282601f1061200657805160ff1916838001178555612033565b82800160010185558215612033579182015b82811115612033578251825591602001919060010190612018565b5061203f929150612063565b5090565b815481835581811511610c7357600083815260209020610c739181019083015b610b8891905b8082111561203f576000815560010161206956008c5be1e5ebec7d5bd14f71427d1e84f3dd0314c0f7b2291e5b200ac8c7c3b925a165627a7a7230582062db8a123a739a84bdeda4b36c49a683ab3f09a2ae13bbda022cb9d547e421af0029",
  "source": "pragma solidity ^0.4.18;\nimport \"./InternalMintableNonFungibleToken.sol\";\n\n/**\n* @title KnownOriginDigitalAsset\n*\n* A curator can mint digital assets and sell them via purchases (crypto via Ether or Fiat)\n*/\ncontract KnownOriginDigitalAsset is InternalMintableNonFungibleToken {\n    using SafeMath for uint;\n\n    // creates and owns the original assets all primary purchases transferred to this account\n    address public curator;\n\n    // the person who is responsible for designing and building the contract\n    address public contractDeveloper;\n\n    // the person who puts on the event\n    address public commissionAccount;\n\n    uint256 public totalPurchaseValueInWei;\n    uint public totalNumberOfPurchases;\n\n    enum PurchaseState { Unsold, EtherPurchase, FiatPurchase }\n\n    mapping(uint => PurchaseState) internal tokenIdToPurchased;\n    mapping(uint => string) internal tokenIdToEdition;\n    mapping(uint => uint8) internal tokenIdToEditionNumber;\n    mapping(uint => string) internal tokenIdToEditionName;\n    mapping(uint => string) internal tokenIdToArtist;\n    mapping(uint => string) internal tokenIdToType;\n    mapping(uint => uint256) internal tokenIdToPriceInWei;\n    mapping(uint => uint256) internal tokenIdToBuyFromDate;\n\n    event PurchasedWithEther(uint256 indexed _tokenId, address indexed _buyer);\n    event PurchasedWithFiat(uint256 indexed _tokenId);\n    event PurchasedWithFiatReversed(uint256 indexed _tokenId);\n\n    modifier onlyCurator() {\n        require(msg.sender == curator);\n        _;\n    }\n\n    modifier onlyUnsold(uint256 _tokenId) {\n        require(tokenIdToPurchased[_tokenId] == PurchaseState.Unsold);\n        _;\n    }\n\n    modifier onlyCuratorOwnedToken(uint256 _tokenId) {\n        require(tokenIdToOwner[_tokenId] == curator);\n        _;\n    }\n\n    modifier onlyWhenBuyDateOpen(uint256 _tokenId) {\n        require(tokenIdToBuyFromDate[_tokenId] <= block.timestamp);\n        _;\n    }\n\n    function KnownOriginDigitalAsset(address _commissionAccount, address _contractDeveloper)\n    public {\n        curator = msg.sender;\n        contractDeveloper = _contractDeveloper;\n        commissionAccount = _commissionAccount;\n        name = \"KnownOriginDigitalAsset\";\n        symbol = \"KODA\";\n    }\n\n    function mintEdition(string _metadata, string _edition, string _artist, string _editionName, string _type, uint8 _totalEdition, uint256 _priceInWei, uint _auctionStartDate)\n    public\n    onlyCurator {\n\n        uint offset = numTokensTotal;\n        for (uint8 i = 0; i < _totalEdition; i++) {\n            uint _tokenId = offset + i;\n            require(tokenIdToOwner[_tokenId] == address(0));\n            _mint(msg.sender, _tokenId, _metadata);\n\n            // TODO remove duplicate artist names\n            // TODO remove duplicate edition name\n            // TODO remove duplicate type\n            // TODO refactor into common setup method\n            tokenIdToEdition[_tokenId] = _edition;\n            tokenIdToEditionNumber[_tokenId] = i + 1;\n            tokenIdToPriceInWei[_tokenId] = _priceInWei;\n            tokenIdToBuyFromDate[_tokenId] = _auctionStartDate;\n            tokenIdToType[_tokenId] = _type;\n            tokenIdToArtist[_tokenId] = _artist;\n            tokenIdToEditionName[_tokenId] = _editionName;\n        }\n    }\n\n    function mint(string _metadata, string _edition, string _artist, string _editionName, string _type, uint256 _priceInWei, uint _auctionStartDate)\n    public\n    onlyCurator {\n        uint _tokenId = numTokensTotal;\n        require(tokenIdToOwner[_tokenId] == address(0));\n        _mint(msg.sender, _tokenId, _metadata);\n\n        // TODO remove duplicate artist names\n        // TODO remove duplicate edition name\n        // TODO remove duplicate type\n        // TODO refactor into common setup method\n        tokenIdToEdition[_tokenId] = _edition;\n        tokenIdToEditionNumber[_tokenId] = 1;\n        tokenIdToPriceInWei[_tokenId] = _priceInWei;\n        tokenIdToBuyFromDate[_tokenId] = _auctionStartDate;\n        tokenIdToType[_tokenId] = _type;\n        tokenIdToArtist[_tokenId] = _artist;\n        tokenIdToEditionName[_tokenId] = _editionName;\n    }\n\n    function isPurchased(uint256 _tokenId)\n    public\n    view\n    returns (PurchaseState _purchased) {\n        return tokenIdToPurchased[_tokenId];\n    }\n\n    function editionOf(uint _tokenId)\n    public\n    view\n    returns (string _edition) {\n        return tokenIdToEdition[_tokenId];\n    }\n\n    function auctionOpened(uint _tokenId)\n    public\n    view\n    returns (bool) {\n        return tokenIdToBuyFromDate[_tokenId] <= block.timestamp; // TODO should we use `now` for this check?\n    }\n\n    function tokenAuctionOpenDate(uint _tokenId)\n    public\n    view\n    returns (uint _auctionStartDate) {\n        return tokenIdToBuyFromDate[_tokenId];\n    }\n\n    // Utility function to get current block.timestamp = now() - good for testing with remix/truffle\n    function getNow() public constant returns (uint) {\n        return now;\n    }\n\n    function priceOfInWei(uint _tokenId)\n    public\n    view\n    returns (uint256 _priceInWei) {\n        return tokenIdToPriceInWei[_tokenId];\n    }\n\n    function setPriceInWei(uint _tokenId, uint256 _priceInWei)\n    public\n    onlyCurator\n    onlyUnsold(_tokenId)\n    onlyCuratorOwnedToken(_tokenId)\n    returns (bool) {\n        tokenIdToPriceInWei[_tokenId] = _priceInWei;\n        return true;\n    }\n\n    function purchaseWithEther(uint _tokenId)\n    public\n    payable\n    onlyUnsold(_tokenId)\n    onlyCuratorOwnedToken(_tokenId)\n    onlyWhenBuyDateOpen(_tokenId)\n    returns (bool) {\n\n        if (msg.value >= tokenIdToPriceInWei[_tokenId]) {\n\n            // approve sender as they have paid the required amount\n            _approve(msg.sender, _tokenId);\n            Approval(curator, msg.sender, _tokenId);\n\n            // transfer assets from contract creator (curator) to new owner\n            transferFrom(curator, msg.sender, _tokenId);\n\n            // now purchased - don't allow re-purchase!\n            tokenIdToPurchased[_tokenId] = PurchaseState.EtherPurchase;\n\n            totalPurchaseValueInWei = totalPurchaseValueInWei.add(msg.value);\n            totalNumberOfPurchases = totalNumberOfPurchases.add(1);\n\n            // TODO provide config for fee split\n\n            // split & transfer 15% fee for curator\n            uint commissionAccountFee = msg.value / 100 * 15;\n            commissionAccount.transfer(commissionAccountFee);\n\n            // split out 15% fee for creator of the contract\n            uint contractDeveloperFee = msg.value / 100 * 15;\n            contractDeveloper.transfer(contractDeveloperFee);\n\n            // final payment to curator would be 70% of initial price\n            uint curatorTotal = msg.value - (commissionAccountFee + contractDeveloperFee);\n\n            // send ether to owner instantly\n            curator.transfer(curatorTotal);\n\n            PurchasedWithEther(_tokenId, msg.sender);\n\n            return true;\n        }\n\n        return false;\n    }\n\n    function purchaseWithFiat(uint _tokenId)\n    public\n    onlyCurator\n    onlyUnsold(_tokenId)\n    onlyCuratorOwnedToken(_tokenId)\n    onlyWhenBuyDateOpen(_tokenId)\n    returns (bool) {\n\n        // now purchased - don't allow re-purchase!\n        tokenIdToPurchased[_tokenId] = PurchaseState.FiatPurchase;\n\n        totalNumberOfPurchases = totalNumberOfPurchases.add(1);\n\n        PurchasedWithFiat(_tokenId);\n\n        return true;\n    }\n\n    function reverseFiatPurchase(uint _tokenId)\n    public\n    onlyCurator\n    onlyCuratorOwnedToken(_tokenId)\n    onlyWhenBuyDateOpen(_tokenId)\n    returns (bool) {\n\n        // Ensure on FIAT purchase can be rolled back if FIAT transaction fails\n        require(tokenIdToPurchased[_tokenId] == PurchaseState.FiatPurchase);\n\n        // reset to Unsold\n        tokenIdToPurchased[_tokenId] = PurchaseState.Unsold;\n\n        totalNumberOfPurchases = totalNumberOfPurchases.sub(1);\n\n        PurchasedWithFiatReversed(_tokenId);\n\n        return true;\n    }\n\n    function assetInfo(uint _tokenId)\n    public\n    view\n    returns (\n    uint256 _tokId,\n    address _owner,\n    PurchaseState _purchaseState,\n    uint256 _priceInWei,\n    uint _auctionStartDate\n    ) {\n        return (\n        _tokenId,\n        tokenIdToOwner[_tokenId],\n        tokenIdToPurchased[_tokenId],\n        tokenIdToPriceInWei[_tokenId],\n        tokenIdToBuyFromDate[_tokenId]\n        );\n    }\n\n    function editionInfo(uint _tokenId)\n    public\n    view\n    returns (\n      uint256 _tokId,\n      string _type,\n      string _edition,\n      string _editionName,\n      uint8 _editionNumber,\n      string _artist,\n      string _metadata\n    ) {\n        return (\n        _tokenId,\n        tokenIdToType[_tokenId],\n        tokenIdToEdition[_tokenId],\n        tokenIdToEditionName[_tokenId],\n        tokenIdToEditionNumber[_tokenId],\n        tokenIdToArtist[_tokenId],\n        tokenIdToMetadata[_tokenId]\n        );\n    }\n}\n",
  "sourcePath": "/Users/andy/workspace/known-origin-web3-marketplace/contracts/KnownOriginDigitalAsset.sol",
  "compiler": {
    "name": "solc",
    "version": "0.4.19+commit.c4cbbb05.Emscripten.clang"
  },
  "schemaVersion": "1.0.1",
  "updatedAt": "2018-03-20T17:15:50.664Z"
}