{
  "contractName": "KnownOriginDigitalAsset",
  "abi": [
    {
      "constant": true,
      "inputs": [],
      "name": "name",
      "outputs": [
        {
          "name": "_name",
          "type": "string"
        }
      ],
      "payable": false,
      "stateMutability": "view",
      "type": "function"
    },
    {
      "constant": true,
      "inputs": [
        {
          "name": "_tokenId",
          "type": "uint256"
        }
      ],
      "name": "getApproved",
      "outputs": [
        {
          "name": "_approved",
          "type": "address"
        }
      ],
      "payable": false,
      "stateMutability": "view",
      "type": "function"
    },
    {
      "constant": false,
      "inputs": [
        {
          "name": "_to",
          "type": "address"
        },
        {
          "name": "_tokenId",
          "type": "uint256"
        }
      ],
      "name": "approve",
      "outputs": [],
      "payable": false,
      "stateMutability": "nonpayable",
      "type": "function"
    },
    {
      "constant": true,
      "inputs": [],
      "name": "implementsERC721",
      "outputs": [
        {
          "name": "_implementsERC721",
          "type": "bool"
        }
      ],
      "payable": false,
      "stateMutability": "view",
      "type": "function"
    },
    {
      "constant": true,
      "inputs": [],
      "name": "totalSupply",
      "outputs": [
        {
          "name": "_totalSupply",
          "type": "uint256"
        }
      ],
      "payable": false,
      "stateMutability": "view",
      "type": "function"
    },
    {
      "constant": false,
      "inputs": [
        {
          "name": "_from",
          "type": "address"
        },
        {
          "name": "_to",
          "type": "address"
        },
        {
          "name": "_tokenId",
          "type": "uint256"
        }
      ],
      "name": "transferFrom",
      "outputs": [],
      "payable": false,
      "stateMutability": "nonpayable",
      "type": "function"
    },
    {
      "constant": true,
      "inputs": [],
      "name": "totalPurchaseValueInWei",
      "outputs": [
        {
          "name": "",
          "type": "uint256"
        }
      ],
      "payable": false,
      "stateMutability": "view",
      "type": "function"
    },
    {
      "constant": true,
      "inputs": [
        {
          "name": "_owner",
          "type": "address"
        },
        {
          "name": "_index",
          "type": "uint256"
        }
      ],
      "name": "tokenOfOwnerByIndex",
      "outputs": [
        {
          "name": "_tokenId",
          "type": "uint256"
        }
      ],
      "payable": false,
      "stateMutability": "view",
      "type": "function"
    },
    {
      "constant": true,
      "inputs": [],
      "name": "totalNumberOfPurchases",
      "outputs": [
        {
          "name": "",
          "type": "uint256"
        }
      ],
      "payable": false,
      "stateMutability": "view",
      "type": "function"
    },
    {
      "constant": true,
      "inputs": [
        {
          "name": "_tokenId",
          "type": "uint256"
        }
      ],
      "name": "ownerOf",
      "outputs": [
        {
          "name": "_owner",
          "type": "address"
        }
      ],
      "payable": false,
      "stateMutability": "view",
      "type": "function"
    },
    {
      "constant": true,
      "inputs": [
        {
          "name": "_tokenId",
          "type": "uint256"
        }
      ],
      "name": "tokenMetadata",
      "outputs": [
        {
          "name": "_infoUrl",
          "type": "string"
        }
      ],
      "payable": false,
      "stateMutability": "view",
      "type": "function"
    },
    {
      "constant": true,
      "inputs": [
        {
          "name": "_owner",
          "type": "address"
        }
      ],
      "name": "balanceOf",
      "outputs": [
        {
          "name": "_balance",
          "type": "uint256"
        }
      ],
      "payable": false,
      "stateMutability": "view",
      "type": "function"
    },
    {
      "constant": true,
      "inputs": [],
      "name": "symbol",
      "outputs": [
        {
          "name": "_symbol",
          "type": "string"
        }
      ],
      "payable": false,
      "stateMutability": "view",
      "type": "function"
    },
    {
      "constant": true,
      "inputs": [],
      "name": "contractDeveloper",
      "outputs": [
        {
          "name": "",
          "type": "address"
        }
      ],
      "payable": false,
      "stateMutability": "view",
      "type": "function"
    },
    {
      "constant": false,
      "inputs": [
        {
          "name": "_to",
          "type": "address"
        },
        {
          "name": "_tokenId",
          "type": "uint256"
        }
      ],
      "name": "transfer",
      "outputs": [],
      "payable": false,
      "stateMutability": "nonpayable",
      "type": "function"
    },
    {
      "constant": true,
      "inputs": [],
      "name": "numTokensTotal",
      "outputs": [
        {
          "name": "",
          "type": "uint256"
        }
      ],
      "payable": false,
      "stateMutability": "view",
      "type": "function"
    },
    {
      "constant": true,
      "inputs": [
        {
          "name": "_owner",
          "type": "address"
        }
      ],
      "name": "getOwnerTokens",
      "outputs": [
        {
          "name": "_tokenIds",
          "type": "uint256[]"
        }
      ],
      "payable": false,
      "stateMutability": "view",
      "type": "function"
    },
    {
      "constant": true,
      "inputs": [],
      "name": "curator",
      "outputs": [
        {
          "name": "",
          "type": "address"
        }
      ],
      "payable": false,
      "stateMutability": "view",
      "type": "function"
    },
    {
      "constant": true,
      "inputs": [],
      "name": "commissionAccount",
      "outputs": [
        {
          "name": "",
          "type": "address"
        }
      ],
      "payable": false,
      "stateMutability": "view",
      "type": "function"
    },
    {
      "inputs": [
        {
          "name": "_commissionAccount",
          "type": "address"
        },
        {
          "name": "_contractDeveloper",
          "type": "address"
        }
      ],
      "payable": false,
      "stateMutability": "nonpayable",
      "type": "constructor"
    },
    {
      "anonymous": false,
      "inputs": [
        {
          "indexed": true,
          "name": "_tokenId",
          "type": "uint256"
        },
        {
          "indexed": true,
          "name": "_buyer",
          "type": "address"
        }
      ],
      "name": "PurchasedWithEther",
      "type": "event"
    },
    {
      "anonymous": false,
      "inputs": [
        {
          "indexed": true,
          "name": "_tokenId",
          "type": "uint256"
        }
      ],
      "name": "PurchasedWithFiat",
      "type": "event"
    },
    {
      "anonymous": false,
      "inputs": [
        {
          "indexed": true,
          "name": "_to",
          "type": "address"
        },
        {
          "indexed": true,
          "name": "_tokenId",
          "type": "uint256"
        }
      ],
      "name": "Mint",
      "type": "event"
    },
    {
      "anonymous": false,
      "inputs": [
        {
          "indexed": true,
          "name": "_from",
          "type": "address"
        },
        {
          "indexed": true,
          "name": "_to",
          "type": "address"
        },
        {
          "indexed": false,
          "name": "_tokenId",
          "type": "uint256"
        }
      ],
      "name": "Transfer",
      "type": "event"
    },
    {
      "anonymous": false,
      "inputs": [
        {
          "indexed": true,
          "name": "_owner",
          "type": "address"
        },
        {
          "indexed": true,
          "name": "_approved",
          "type": "address"
        },
        {
          "indexed": false,
          "name": "_tokenId",
          "type": "uint256"
        }
      ],
      "name": "Approval",
      "type": "event"
    },
    {
      "constant": false,
      "inputs": [
        {
          "name": "_metadata",
          "type": "string"
        },
        {
          "name": "_edition",
          "type": "string"
        },
        {
          "name": "_totalEdition",
          "type": "uint8"
        },
        {
          "name": "_priceInWei",
          "type": "uint256"
        },
        {
          "name": "_auctionStartDate",
          "type": "uint256"
        }
      ],
      "name": "mintEdition",
      "outputs": [],
      "payable": false,
      "stateMutability": "nonpayable",
      "type": "function"
    },
    {
      "constant": false,
      "inputs": [
        {
          "name": "_metadata",
          "type": "string"
        },
        {
          "name": "_edition",
          "type": "string"
        },
        {
          "name": "_priceInWei",
          "type": "uint256"
        },
        {
          "name": "_auctionStartDate",
          "type": "uint256"
        }
      ],
      "name": "mint",
      "outputs": [],
      "payable": false,
      "stateMutability": "nonpayable",
      "type": "function"
    },
    {
      "constant": true,
      "inputs": [
        {
          "name": "_tokenId",
          "type": "uint256"
        }
      ],
      "name": "isPurchased",
      "outputs": [
        {
          "name": "_purchased",
          "type": "uint8"
        }
      ],
      "payable": false,
      "stateMutability": "view",
      "type": "function"
    },
    {
      "constant": true,
      "inputs": [
        {
          "name": "_tokenId",
          "type": "uint256"
        }
      ],
      "name": "editionOf",
      "outputs": [
        {
          "name": "_edition",
          "type": "string"
        }
      ],
      "payable": false,
      "stateMutability": "view",
      "type": "function"
    },
    {
      "constant": true,
      "inputs": [
        {
          "name": "_tokenId",
          "type": "uint256"
        }
      ],
      "name": "auctionOpened",
      "outputs": [
        {
          "name": "",
          "type": "bool"
        }
      ],
      "payable": false,
      "stateMutability": "view",
      "type": "function"
    },
    {
      "constant": true,
      "inputs": [
        {
          "name": "_tokenId",
          "type": "uint256"
        }
      ],
      "name": "tokenAuctionOpenDate",
      "outputs": [
        {
          "name": "_auctionStartDate",
          "type": "uint256"
        }
      ],
      "payable": false,
      "stateMutability": "view",
      "type": "function"
    },
    {
      "constant": true,
      "inputs": [],
      "name": "getNow",
      "outputs": [
        {
          "name": "",
          "type": "uint256"
        }
      ],
      "payable": false,
      "stateMutability": "view",
      "type": "function"
    },
    {
      "constant": true,
      "inputs": [
        {
          "name": "_tokenId",
          "type": "uint256"
        }
      ],
      "name": "priceOfInWei",
      "outputs": [
        {
          "name": "_priceInWei",
          "type": "uint256"
        }
      ],
      "payable": false,
      "stateMutability": "view",
      "type": "function"
    },
    {
      "constant": false,
      "inputs": [
        {
          "name": "_tokenId",
          "type": "uint256"
        },
        {
          "name": "_priceInWei",
          "type": "uint256"
        }
      ],
      "name": "setPriceInWei",
      "outputs": [
        {
          "name": "",
          "type": "bool"
        }
      ],
      "payable": false,
      "stateMutability": "nonpayable",
      "type": "function"
    },
    {
      "constant": false,
      "inputs": [
        {
          "name": "_tokenId",
          "type": "uint256"
        }
      ],
      "name": "purchaseWithEther",
      "outputs": [
        {
          "name": "",
          "type": "bool"
        }
      ],
      "payable": true,
      "stateMutability": "payable",
      "type": "function"
    },
    {
      "constant": false,
      "inputs": [
        {
          "name": "_tokenId",
          "type": "uint256"
        }
      ],
      "name": "purchaseWithFiat",
      "outputs": [
        {
          "name": "",
          "type": "bool"
        }
      ],
      "payable": false,
      "stateMutability": "nonpayable",
      "type": "function"
    },
    {
      "constant": true,
      "inputs": [
        {
          "name": "_tokenId",
          "type": "uint256"
        }
      ],
      "name": "assetInfo",
      "outputs": [
        {
          "name": "_tokId",
          "type": "uint256"
        },
        {
          "name": "_owner",
          "type": "address"
        },
        {
          "name": "_metadata",
          "type": "string"
        },
        {
          "name": "_edition",
          "type": "string"
        },
        {
          "name": "_editionNo",
          "type": "uint8"
        },
        {
          "name": "_purchaseState",
          "type": "uint8"
        },
        {
          "name": "_priceInWei",
          "type": "uint256"
        }
      ],
      "payable": false,
      "stateMutability": "view",
      "type": "function"
    }
  ],
  "bytecode": "0x606060405234156200001057600080fd5b60405160408062002d3d8339810160405280805190602001909190805190602001909190505033600860006101000a81548173ffffffffffffffffffffffffffffffffffffffff021916908373ffffffffffffffffffffffffffffffffffffffff16021790555080600960006101000a81548173ffffffffffffffffffffffffffffffffffffffff021916908373ffffffffffffffffffffffffffffffffffffffff16021790555081600a60006101000a81548173ffffffffffffffffffffffffffffffffffffffff021916908373ffffffffffffffffffffffffffffffffffffffff1602179055506040805190810160405280601781526020017f4b6e6f776e4f726967696e4469676974616c417373657400000000000000000081525060009080519060200190620001469291906200019d565b506040805190810160405280600481526020017f4b4f44410000000000000000000000000000000000000000000000000000000081525060019080519060200190620001949291906200019d565b5050506200024c565b828054600181600116156101000203166002900490600052602060002090601f016020900481019282601f10620001e057805160ff191683800117855562000211565b8280016001018555821562000211579182015b8281111562000210578251825591602001919060010190620001f3565b5b50905062000220919062000224565b5090565b6200024991905b80821115620002455760008160009055506001016200022b565b5090565b90565b612ae1806200025c6000396000f30060606040526004361061018b576000357c0100000000000000000000000000000000000000000000000000000000900463ffffffff16806306fdde0314610190578063081812fc1461021e578063095ea7b3146102815780631051db34146102c357806318160ddd146102f057806318714bc81461031957806323b872dd146103545780632bbd84e8146103b55780632c9f4f62146103de5780632f745c59146104235780634082b499146104795780634be185f0146104a25780634cc6723c1461053e5780636352211e146105fc5780636914db601461065f5780636a099681146106fb57806370a08231146107325780637e2982491461077f5780638d4137bd146107c357806395d89b41146107fe578063a497229b1461088c578063a5d4f4ba146108c3578063a879fcbb14610918578063a9059cbb14610a83578063af129dc214610ac5578063b9a918ce14610aee578063bbe4fd5014610ba0578063d63d4af014610bc9578063e66f53b714610c57578063ed70994b14610cac578063f4ce7c1c14610d01575b600080fd5b341561019b57600080fd5b6101a3610d31565b6040518080602001828103825283818151815260200191508051906020019080838360005b838110156101e35780820151818401526020810190506101c8565b50505050905090810190601f1680156102105780820380516001836020036101000a031916815260200191505b509250505060405180910390f35b341561022957600080fd5b61023f6004808035906020019091905050610dd9565b604051808273ffffffffffffffffffffffffffffffffffffffff1673ffffffffffffffffffffffffffffffffffffffff16815260200191505060405180910390f35b341561028c57600080fd5b6102c1600480803573ffffffffffffffffffffffffffffffffffffffff16906020019091908035906020019091905050610deb565b005b34156102ce57600080fd5b6102d6610f98565b604051808215151515815260200191505060405180910390f35b34156102fb57600080fd5b610303610fa1565b6040518082815260200191505060405180910390f35b341561032457600080fd5b61033a6004808035906020019091905050610fab565b604051808215151515815260200191505060405180910390f35b341561035f57600080fd5b6103b3600480803573ffffffffffffffffffffffffffffffffffffffff1690602001909190803573ffffffffffffffffffffffffffffffffffffffff1690602001909190803590602001909190505061118c565b005b34156103c057600080fd5b6103c8611357565b6040518082815260200191505060405180910390f35b34156103e957600080fd5b6103ff600480803590602001909190505061135d565b6040518082600281111561040f57fe5b60ff16815260200191505060405180910390f35b341561042e57600080fd5b610463600480803573ffffffffffffffffffffffffffffffffffffffff16906020019091908035906020019091905050611387565b6040518082815260200191505060405180910390f35b341561048457600080fd5b61048c61139b565b6040518082815260200191505060405180910390f35b34156104ad57600080fd5b6104c360048080359060200190919050506113a1565b6040518080602001828103825283818151815260200191508051906020019080838360005b838110156105035780820151818401526020810190506104e8565b50505050905090810190601f1680156105305780820380516001836020036101000a031916815260200191505b509250505060405180910390f35b341561054957600080fd5b6105fa600480803590602001908201803590602001908080601f0160208091040260200160405190810160405280939291908181526020018383808284378201915050505050509190803590602001908201803590602001908080601f0160208091040260200160405190810160405280939291908181526020018383808284378201915050505050509190803560ff1690602001909190803590602001909190803590602001909190505061145c565b005b341561060757600080fd5b61061d60048080359060200190919050506115f4565b604051808273ffffffffffffffffffffffffffffffffffffffff1673ffffffffffffffffffffffffffffffffffffffff16815260200191505060405180910390f35b341561066a57600080fd5b6106806004808035906020019091905050611606565b6040518080602001828103825283818151815260200191508051906020019080838360005b838110156106c05780820151818401526020810190506106a5565b50505050905090810190601f1680156106ed5780820380516001836020036101000a031916815260200191505b509250505060405180910390f35b341561070657600080fd5b61071c60048080359060200190919050506116c1565b6040518082815260200191505060405180910390f35b341561073d57600080fd5b610769600480803573ffffffffffffffffffffffffffffffffffffffff169060200190919050506116de565b6040518082815260200191505060405180910390f35b341561078a57600080fd5b6107a9600480803590602001909190803590602001909190505061172a565b604051808215151515815260200191505060405180910390f35b34156107ce57600080fd5b6107e46004808035906020019091905050611882565b604051808215151515815260200191505060405180910390f35b341561080957600080fd5b6108116118a2565b6040518080602001828103825283818151815260200191508051906020019080838360005b83811015610851578082015181840152602081019050610836565b50505050905090810190601f16801561087e5780820380516001836020036101000a031916815260200191505b509250505060405180910390f35b341561089757600080fd5b6108ad600480803590602001909190505061194a565b6040518082815260200191505060405180910390f35b34156108ce57600080fd5b6108d6611967565b604051808273ffffffffffffffffffffffffffffffffffffffff1673ffffffffffffffffffffffffffffffffffffffff16815260200191505060405180910390f35b341561092357600080fd5b610939600480803590602001909190505061198d565b604051808881526020018773ffffffffffffffffffffffffffffffffffffffff1673ffffffffffffffffffffffffffffffffffffffff16815260200180602001806020018660ff1660ff16815260200185600281111561099557fe5b60ff168152602001848152602001838103835288818151815260200191508051906020019080838360005b838110156109db5780820151818401526020810190506109c0565b50505050905090810190601f168015610a085780820380516001836020036101000a031916815260200191505b50838103825287818151815260200191508051906020019080838360005b83811015610a41578082015181840152602081019050610a26565b50505050905090810190601f168015610a6e5780820380516001836020036101000a031916815260200191505b50995050505050505050505060405180910390f35b3415610a8e57600080fd5b610ac3600480803573ffffffffffffffffffffffffffffffffffffffff16906020019091908035906020019091905050611ba7565b005b3415610ad057600080fd5b610ad8611d2f565b6040518082815260200191505060405180910390f35b3415610af957600080fd5b610b9e600480803590602001908201803590602001908080601f0160208091040260200160405190810160405280939291908181526020018383808284378201915050505050509190803590602001908201803590602001908080601f01602080910402602001604051908101604052809392919081815260200183838082843782019150505050505091908035906020019091908035906020019091905050611d35565b005b3415610bab57600080fd5b610bb3611e9d565b6040518082815260200191505060405180910390f35b3415610bd457600080fd5b610c00600480803573ffffffffffffffffffffffffffffffffffffffff16906020019091905050611ea5565b6040518080602001828103825283818151815260200191508051906020019060200280838360005b83811015610c43578082015181840152602081019050610c28565b505050509050019250505060405180910390f35b3415610c6257600080fd5b610c6a611ebd565b604051808273ffffffffffffffffffffffffffffffffffffffff1673ffffffffffffffffffffffffffffffffffffffff16815260200191505060405180910390f35b3415610cb757600080fd5b610cbf611ee3565b604051808273ffffffffffffffffffffffffffffffffffffffff1673ffffffffffffffffffffffffffffffffffffffff16815260200191505060405180910390f35b610d176004808035906020019091905050611f09565b604051808215151515815260200191505060405180910390f35b610d39612990565b60008054600181600116156101000203166002900480601f016020809104026020016040519081016040528092919081815260200182805460018160011615610100020316600290048015610dcf5780601f10610da457610100808354040283529160200191610dcf565b820191906000526020600020905b815481529060010190602001808311610db257829003601f168201915b5050505050905090565b6000610de4826122fc565b9050919050565b80600073ffffffffffffffffffffffffffffffffffffffff16610e0d826115f4565b73ffffffffffffffffffffffffffffffffffffffff1614151515610e3057600080fd5b610e39826115f4565b73ffffffffffffffffffffffffffffffffffffffff163373ffffffffffffffffffffffffffffffffffffffff16141515610e7257600080fd5b8273ffffffffffffffffffffffffffffffffffffffff163373ffffffffffffffffffffffffffffffffffffffff1614151515610ead57600080fd5b600073ffffffffffffffffffffffffffffffffffffffff16610ece836122fc565b73ffffffffffffffffffffffffffffffffffffffff16141580610f1e5750600073ffffffffffffffffffffffffffffffffffffffff168373ffffffffffffffffffffffffffffffffffffffff1614155b15610f9357610f2d8383612339565b8273ffffffffffffffffffffffffffffffffffffffff163373ffffffffffffffffffffffffffffffffffffffff167f8c5be1e5ebec7d5bd14f71427d1e84f3dd0314c0f7b2291e5b200ac8c7c3b925846040518082815260200191505060405180910390a35b505050565b60006001905090565b6000600254905090565b6000600860009054906101000a900473ffffffffffffffffffffffffffffffffffffffff1673ffffffffffffffffffffffffffffffffffffffff163373ffffffffffffffffffffffffffffffffffffffff1614151561100957600080fd5b816000600281111561101757fe5b600d600083815260200190815260200160002060009054906101000a900460ff16600281111561104357fe5b14151561104f57600080fd5b82600860009054906101000a900473ffffffffffffffffffffffffffffffffffffffff1673ffffffffffffffffffffffffffffffffffffffff166003600083815260200190815260200160002060009054906101000a900473ffffffffffffffffffffffffffffffffffffffff1673ffffffffffffffffffffffffffffffffffffffff161415156110df57600080fd5b834260116000838152602001908152602001600020541115151561110257600080fd5b6002600d600087815260200190815260200160002060006101000a81548160ff0219169083600281111561113257fe5b021790555061114d6001600c5461238f90919063ffffffff16565b600c81905550847f0bdb01638ac3be385d9ab692cf4661a5777d486d2b58eee4bad9b76374954c7260405160405180910390a260019350505050919050565b80600073ffffffffffffffffffffffffffffffffffffffff166111ae826115f4565b73ffffffffffffffffffffffffffffffffffffffff16141515156111d157600080fd5b3373ffffffffffffffffffffffffffffffffffffffff166111f183610dd9565b73ffffffffffffffffffffffffffffffffffffffff1614151561121357600080fd5b8373ffffffffffffffffffffffffffffffffffffffff16611233836115f4565b73ffffffffffffffffffffffffffffffffffffffff1614151561125557600080fd5b600073ffffffffffffffffffffffffffffffffffffffff168373ffffffffffffffffffffffffffffffffffffffff161415151561129157600080fd5b61129c8484846123ad565b60008473ffffffffffffffffffffffffffffffffffffffff167f8c5be1e5ebec7d5bd14f71427d1e84f3dd0314c0f7b2291e5b200ac8c7c3b925846040518082815260200191505060405180910390a38273ffffffffffffffffffffffffffffffffffffffff168473ffffffffffffffffffffffffffffffffffffffff167fddf252ad1be2c89b69c2b068fc378daa952ba7f163c4a11628f55a4df523b3ef846040518082815260200191505060405180910390a350505050565b600b5481565b6000600d600083815260200190815260200160002060009054906101000a900460ff169050919050565b600061139383836123d9565b905092915050565b600c5481565b6113a9612990565b600e60008381526020019081526020016000208054600181600116156101000203166002900480601f0160208091040260200160405190810160405280929190818152602001828054600181600116156101000203166002900480156114505780601f1061142557610100808354040283529160200191611450565b820191906000526020600020905b81548152906001019060200180831161143357829003601f168201915b50505050509050919050565b6000806000600860009054906101000a900473ffffffffffffffffffffffffffffffffffffffff1673ffffffffffffffffffffffffffffffffffffffff163373ffffffffffffffffffffffffffffffffffffffff161415156114bd57600080fd5b6002549250600091505b8560ff168260ff1610156115ea578160ff1683019050600073ffffffffffffffffffffffffffffffffffffffff166003600083815260200190815260200160002060009054906101000a900473ffffffffffffffffffffffffffffffffffffffff1673ffffffffffffffffffffffffffffffffffffffff1614151561154b57600080fd5b61155633828a61243b565b86600e6000838152602001908152602001600020908051906020019061157d9291906129a4565b5060018201600f600083815260200190815260200160002060006101000a81548160ff021916908360ff16021790555084601060008381526020019081526020016000208190555083601160008381526020019081526020016000208190555081806001019250506114c7565b5050505050505050565b60006115ff8261252e565b9050919050565b61160e612990565b600560008381526020019081526020016000208054600181600116156101000203166002900480601f0160208091040260200160405190810160405280929190818152602001828054600181600116156101000203166002900480156116b55780601f1061168a576101008083540402835291602001916116b5565b820191906000526020600020905b81548152906001019060200180831161169857829003601f168201915b50505050509050919050565b600060116000838152602001908152602001600020549050919050565b6000600660008373ffffffffffffffffffffffffffffffffffffffff1673ffffffffffffffffffffffffffffffffffffffff168152602001908152602001600020805490509050919050565b6000600860009054906101000a900473ffffffffffffffffffffffffffffffffffffffff1673ffffffffffffffffffffffffffffffffffffffff163373ffffffffffffffffffffffffffffffffffffffff1614151561178857600080fd5b826000600281111561179657fe5b600d600083815260200190815260200160002060009054906101000a900460ff1660028111156117c257fe5b1415156117ce57600080fd5b83600860009054906101000a900473ffffffffffffffffffffffffffffffffffffffff1673ffffffffffffffffffffffffffffffffffffffff166003600083815260200190815260200160002060009054906101000a900473ffffffffffffffffffffffffffffffffffffffff1673ffffffffffffffffffffffffffffffffffffffff1614151561185e57600080fd5b83601060008781526020019081526020016000208190555060019250505092915050565b600042601160008481526020019081526020016000205411159050919050565b6118aa612990565b60018054600181600116156101000203166002900480601f0160208091040260200160405190810160405280929190818152602001828054600181600116156101000203166002900480156119405780601f1061191557610100808354040283529160200191611940565b820191906000526020600020905b81548152906001019060200180831161192357829003601f168201915b5050505050905090565b600060106000838152602001908152602001600020549050919050565b600960009054906101000a900473ffffffffffffffffffffffffffffffffffffffff1681565b600080611998612990565b6119a0612990565b600080600087600360008a815260200190815260200160002060009054906101000a900473ffffffffffffffffffffffffffffffffffffffff16600560008b8152602001908152602001600020600e60008c8152602001908152602001600020600f60008d815260200190815260200160002060009054906101000a900460ff16600d60008e815260200190815260200160002060009054906101000a900460ff16601060008f815260200190815260200160002054848054600181600116156101000203166002900480601f016020809104026020016040519081016040528092919081815260200182805460018160011615610100020316600290048015611aeb5780601f10611ac057610100808354040283529160200191611aeb565b820191906000526020600020905b815481529060010190602001808311611ace57829003601f168201915b50505050509450838054600181600116156101000203166002900480601f016020809104026020016040519081016040528092919081815260200182805460018160011615610100020316600290048015611b875780601f10611b5c57610100808354040283529160200191611b87565b820191906000526020600020905b815481529060010190602001808311611b6a57829003601f168201915b505050505093509650965096509650965096509650919395979092949650565b80600073ffffffffffffffffffffffffffffffffffffffff16611bc9826115f4565b73ffffffffffffffffffffffffffffffffffffffff1614151515611bec57600080fd5b3373ffffffffffffffffffffffffffffffffffffffff16611c0c836115f4565b73ffffffffffffffffffffffffffffffffffffffff16141515611c2e57600080fd5b600073ffffffffffffffffffffffffffffffffffffffff168373ffffffffffffffffffffffffffffffffffffffff1614151515611c6a57600080fd5b611c753384846123ad565b60003373ffffffffffffffffffffffffffffffffffffffff167f8c5be1e5ebec7d5bd14f71427d1e84f3dd0314c0f7b2291e5b200ac8c7c3b925846040518082815260200191505060405180910390a38273ffffffffffffffffffffffffffffffffffffffff163373ffffffffffffffffffffffffffffffffffffffff167fddf252ad1be2c89b69c2b068fc378daa952ba7f163c4a11628f55a4df523b3ef846040518082815260200191505060405180910390a3505050565b60025481565b6000600860009054906101000a900473ffffffffffffffffffffffffffffffffffffffff1673ffffffffffffffffffffffffffffffffffffffff163373ffffffffffffffffffffffffffffffffffffffff16141515611d9357600080fd5b6002549050600073ffffffffffffffffffffffffffffffffffffffff166003600083815260200190815260200160002060009054906101000a900473ffffffffffffffffffffffffffffffffffffffff1673ffffffffffffffffffffffffffffffffffffffff16141515611e0657600080fd5b611e1133828761243b565b83600e60008381526020019081526020016000209080519060200190611e389291906129a4565b506001600f600083815260200190815260200160002060006101000a81548160ff021916908360ff1602179055508260106000838152602001908152602001600020819055508160116000838152602001908152602001600020819055505050505050565b600042905090565b611ead612a24565b611eb68261256b565b9050919050565b600860009054906101000a900473ffffffffffffffffffffffffffffffffffffffff1681565b600a60009054906101000a900473ffffffffffffffffffffffffffffffffffffffff1681565b6000806000808460006002811115611f1d57fe5b600d600083815260200190815260200160002060009054906101000a900460ff166002811115611f4957fe5b141515611f5557600080fd5b85600860009054906101000a900473ffffffffffffffffffffffffffffffffffffffff1673ffffffffffffffffffffffffffffffffffffffff166003600083815260200190815260200160002060009054906101000a900473ffffffffffffffffffffffffffffffffffffffff1673ffffffffffffffffffffffffffffffffffffffff16141515611fe557600080fd5b864260116000838152602001908152602001600020541115151561200857600080fd5b6010600089815260200190815260200160002054341015156122ec5761202e3389612339565b3373ffffffffffffffffffffffffffffffffffffffff16600860009054906101000a900473ffffffffffffffffffffffffffffffffffffffff1673ffffffffffffffffffffffffffffffffffffffff167f8c5be1e5ebec7d5bd14f71427d1e84f3dd0314c0f7b2291e5b200ac8c7c3b9258a6040518082815260200191505060405180910390a36120e2600860009054906101000a900473ffffffffffffffffffffffffffffffffffffffff16338a61118c565b6001600d60008a815260200190815260200160002060006101000a81548160ff0219169083600281111561211257fe5b021790555061212c34600b5461238f90919063ffffffff16565b600b819055506121486001600c5461238f90919063ffffffff16565b600c81905550600f60643481151561215c57fe5b04029550600a60009054906101000a900473ffffffffffffffffffffffffffffffffffffffff1673ffffffffffffffffffffffffffffffffffffffff166108fc879081150290604051600060405180830381858888f1935050505015156121c257600080fd5b600f6064348115156121d057fe5b04029450600960009054906101000a900473ffffffffffffffffffffffffffffffffffffffff1673ffffffffffffffffffffffffffffffffffffffff166108fc869081150290604051600060405180830381858888f19350505050151561223657600080fd5b84860134039350600860009054906101000a900473ffffffffffffffffffffffffffffffffffffffff1673ffffffffffffffffffffffffffffffffffffffff166108fc859081150290604051600060405180830381858888f19350505050151561229f57600080fd5b3373ffffffffffffffffffffffffffffffffffffffff16887f3817d9a4b057a227bd53f7fa5d4f61f04e716166b150ff09a06fa830f10cb50160405160405180910390a3600196506122f1565b600096505b505050505050919050565b60006004600083815260200190815260200160002060009054906101000a900473ffffffffffffffffffffffffffffffffffffffff169050919050565b816004600083815260200190815260200160002060006101000a81548173ffffffffffffffffffffffffffffffffffffffff021916908373ffffffffffffffffffffffffffffffffffffffff1602179055505050565b60008082840190508381101515156123a357fe5b8091505092915050565b6123b681612608565b6123c0838261265e565b6123ca8183612847565b6123d4828261289d565b505050565b6000600660008473ffffffffffffffffffffffffffffffffffffffff1673ffffffffffffffffffffffffffffffffffffffff1681526020019081526020016000208281548110151561242757fe5b906000526020600020900154905092915050565b81600073ffffffffffffffffffffffffffffffffffffffff166003600083815260200190815260200160002060009054906101000a900473ffffffffffffffffffffffffffffffffffffffff1673ffffffffffffffffffffffffffffffffffffffff161415156124aa57600080fd5b6124b48385612847565b6124be848461289d565b6124d4600160025461238f90919063ffffffff16565b6002819055506124e48383612964565b828473ffffffffffffffffffffffffffffffffffffffff167f0f6798a560793a54c3bcfe86a93cde1e73087d944c0ea20544137d412139688560405160405180910390a350505050565b60006003600083815260200190815260200160002060009054906101000a900473ffffffffffffffffffffffffffffffffffffffff169050919050565b612573612a24565b600660008373ffffffffffffffffffffffffffffffffffffffff1673ffffffffffffffffffffffffffffffffffffffff1681526020019081526020016000208054806020026020016040519081016040528092919081815260200182805480156125fc57602002820191906000526020600020905b8154815260200190600101908083116125e8575b50505050509050919050565b60006004600083815260200190815260200160002060006101000a81548173ffffffffffffffffffffffffffffffffffffffff021916908373ffffffffffffffffffffffffffffffffffffffff16021790555050565b6000806000600660008673ffffffffffffffffffffffffffffffffffffffff1673ffffffffffffffffffffffffffffffffffffffff16815260200190815260200160002080549050925060076000858152602001908152602001600020549150600660008673ffffffffffffffffffffffffffffffffffffffff1673ffffffffffffffffffffffffffffffffffffffff1681526020019081526020016000206001840381548110151561270d57fe5b906000526020600020900154905080600660008773ffffffffffffffffffffffffffffffffffffffff1673ffffffffffffffffffffffffffffffffffffffff1681526020019081526020016000208381548110151561276857fe5b906000526020600020900181905550816007600083815260200190815260200160002081905550600660008673ffffffffffffffffffffffffffffffffffffffff1673ffffffffffffffffffffffffffffffffffffffff168152602001908152602001600020600184038154811015156127de57fe5b906000526020600020900160009055600660008673ffffffffffffffffffffffffffffffffffffffff1673ffffffffffffffffffffffffffffffffffffffff16815260200190815260200160002080548091906001900361283f9190612a38565b505050505050565b806003600084815260200190815260200160002060006101000a81548173ffffffffffffffffffffffffffffffffffffffff021916908373ffffffffffffffffffffffffffffffffffffffff1602179055505050565b600660008373ffffffffffffffffffffffffffffffffffffffff1673ffffffffffffffffffffffffffffffffffffffff16815260200190815260200160002080548060010182816128ee9190612a64565b9160005260206000209001600083909190915055506001600660008473ffffffffffffffffffffffffffffffffffffffff1673ffffffffffffffffffffffffffffffffffffffff168152602001908152602001600020805490500360076000838152602001908152602001600020819055505050565b8060056000848152602001908152602001600020908051906020019061298b9291906129a4565b505050565b602060405190810160405280600081525090565b828054600181600116156101000203166002900490600052602060002090601f016020900481019282601f106129e557805160ff1916838001178555612a13565b82800160010185558215612a13579182015b82811115612a125782518255916020019190600101906129f7565b5b509050612a209190612a90565b5090565b602060405190810160405280600081525090565b815481835581811511612a5f57818360005260206000209182019101612a5e9190612a90565b5b505050565b815481835581811511612a8b57818360005260206000209182019101612a8a9190612a90565b5b505050565b612ab291905b80821115612aae576000816000905550600101612a96565b5090565b905600a165627a7a72305820b94825014cb3b47401f8e57a108d3aacacd7dbe0cc0285cb65079c4f0ee0c3310029",
  "source": "pragma solidity 0.4.19;\nimport \"./InternalMintableNonFungibleToken.sol\";\n\n/**\n* @title KnownOriginDigitalAsset\n*\n* A curator can mint digital assets and sell them via purchases (crypto via Ether or Fiat)\n*/\ncontract KnownOriginDigitalAsset is InternalMintableNonFungibleToken {\n    using SafeMath for uint;\n\n    // creates and owns the original assets all primary purchases transferred to this account\n    address public curator;\n\n    // the person who is responsible for designing and building the contract\n    address public contractDeveloper;\n\n    // the person who puts on the event\n    address public commissionAccount;\n\n    uint256 public totalPurchaseValueInWei;\n    uint public totalNumberOfPurchases;\n\n    enum PurchaseState { Unsold, EtherPurchase, FiatPurchase }\n\n    mapping(uint => PurchaseState) internal tokenIdToPurchased;\n    mapping(uint => string) internal tokenIdToEdition;\n    mapping(uint => uint8) internal tokenIdToEditionNumber;\n    mapping(uint => uint256) internal tokenIdToPriceInWei;\n    mapping(uint => uint256) internal tokenIdToBuyFromDate;\n\n    event PurchasedWithEther(uint256 indexed _tokenId, address indexed _buyer);\n    event PurchasedWithFiat(uint256 indexed _tokenId);\n\n    modifier onlyCurator() {\n        require(msg.sender == curator);\n        _;\n    }\n\n    modifier onlyUnsold(uint256 _tokenId) {\n        require(tokenIdToPurchased[_tokenId] == PurchaseState.Unsold);\n        _;\n    }\n\n    modifier onlyCuratorOwnedToken(uint256 _tokenId) {\n        require(tokenIdToOwner[_tokenId] == curator);\n        _;\n    }\n\n    modifier onlyWhenBuyDateOpen(uint256 _tokenId) {\n        require(tokenIdToBuyFromDate[_tokenId] <= block.timestamp);\n        _;\n    }\n\n    function KnownOriginDigitalAsset(address _commissionAccount, address _contractDeveloper)\n    public {\n        curator = msg.sender;\n        contractDeveloper = _contractDeveloper;\n        commissionAccount = _commissionAccount;\n        name = \"KnownOriginDigitalAsset\";\n        symbol = \"KODA\";\n    }\n\n    function mintEdition(string _metadata, string _edition, uint8 _totalEdition, uint256 _priceInWei, uint _auctionStartDate)\n    public\n    onlyCurator {\n\n        uint offset = numTokensTotal;\n        for (uint8 i = 0; i < _totalEdition; i++) {\n            uint _tokenId = offset + i;\n            require(tokenIdToOwner[_tokenId] == address(0));\n            _mint(msg.sender, _tokenId, _metadata);\n            tokenIdToEdition[_tokenId] = _edition;\n            tokenIdToEditionNumber[_tokenId] = i + 1;\n            tokenIdToPriceInWei[_tokenId] = _priceInWei;\n            tokenIdToBuyFromDate[_tokenId] = _auctionStartDate;\n        }\n    }\n\n    function mint(string _metadata, string _edition, uint256 _priceInWei, uint _auctionStartDate)\n    public\n    onlyCurator {\n        uint _tokenId = numTokensTotal;\n        require(tokenIdToOwner[_tokenId] == address(0));\n        _mint(msg.sender, _tokenId, _metadata);\n        tokenIdToEdition[_tokenId] = _edition;\n        tokenIdToEditionNumber[_tokenId] = 1;\n        tokenIdToPriceInWei[_tokenId] = _priceInWei;\n        tokenIdToBuyFromDate[_tokenId] = _auctionStartDate;\n    }\n\n    function isPurchased(uint256 _tokenId)\n    public\n    view\n    returns (PurchaseState _purchased) {\n        return tokenIdToPurchased[_tokenId];\n    }\n\n    function editionOf(uint _tokenId)\n    public\n    view\n    returns (string _edition) {\n        return tokenIdToEdition[_tokenId];\n    }\n\n    function auctionOpened(uint _tokenId)\n    public\n    view\n    returns (bool) {\n        return tokenIdToBuyFromDate[_tokenId] <= block.timestamp;\n    }\n\n    function tokenAuctionOpenDate(uint _tokenId)\n    public\n    view\n    returns (uint _auctionStartDate) {\n        return tokenIdToBuyFromDate[_tokenId];\n    }\n\n    // Utility function to get current block.timestamp = now() - good for testing with remix/truffle\n    function getNow() public constant returns (uint) {\n        return now;\n    }\n\n    function priceOfInWei(uint _tokenId)\n    public\n    view\n    returns (uint256 _priceInWei) {\n        return tokenIdToPriceInWei[_tokenId];\n    }\n\n    function setPriceInWei(uint _tokenId, uint256 _priceInWei)\n    public\n    onlyCurator\n    onlyUnsold(_tokenId)\n    onlyCuratorOwnedToken(_tokenId)\n    returns (bool) {\n        tokenIdToPriceInWei[_tokenId] = _priceInWei;\n        return true;\n    }\n\n    function purchaseWithEther(uint _tokenId)\n    public\n    payable\n    onlyUnsold(_tokenId)\n    onlyCuratorOwnedToken(_tokenId)\n    onlyWhenBuyDateOpen(_tokenId)\n    returns (bool) {\n\n        if (msg.value >= tokenIdToPriceInWei[_tokenId]) {\n\n            // approve sender as they have paid the required amount\n            _approve(msg.sender, _tokenId);\n            Approval(curator, msg.sender, _tokenId);\n\n            // transfer assets from contract creator (curator) to new owner\n            transferFrom(curator, msg.sender, _tokenId);\n\n            // now purchased - don't allow re-purchase!\n            tokenIdToPurchased[_tokenId] = PurchaseState.EtherPurchase;\n\n            totalPurchaseValueInWei = totalPurchaseValueInWei.add(msg.value);\n            totalNumberOfPurchases = totalNumberOfPurchases.add(1);\n\n            // TODO provide config for fee split\n\n            // split & transfer 15% fee for curator\n            uint commissionAccountFee = msg.value / 100 * 15;\n            commissionAccount.transfer(commissionAccountFee);\n\n            // split out 15% fee for creator of the contract\n            uint contractDeveloperFee = msg.value / 100 * 15;\n            contractDeveloper.transfer(contractDeveloperFee);\n\n            // final payment to curator would be 70% of initial price\n            uint curatorTotal = msg.value - (commissionAccountFee + contractDeveloperFee);\n\n            // send ether to owner instantly\n            curator.transfer(curatorTotal);\n\n            PurchasedWithEther(_tokenId, msg.sender);\n\n            return true;\n        }\n\n        return false;\n    }\n\n    function purchaseWithFiat(uint _tokenId)\n    public\n    onlyCurator\n    onlyUnsold(_tokenId)\n    onlyCuratorOwnedToken(_tokenId)\n    onlyWhenBuyDateOpen(_tokenId)\n    returns (bool) {\n\n        // now purchased - don't allow re-purchase!\n        tokenIdToPurchased[_tokenId] = PurchaseState.FiatPurchase;\n\n        totalNumberOfPurchases = totalNumberOfPurchases.add(1);\n\n        PurchasedWithFiat(_tokenId);\n\n        return true;\n    }\n\n    // Start date not added to avoid \"stack to deep\" errors - see tokenAuctionOpenDate() for accessor\n    function assetInfo(uint _tokenId)\n    public\n    view\n    returns (\n    uint256 _tokId,\n    address _owner,\n    string _metadata,\n    string _edition,\n    uint8 _editionNo,\n    PurchaseState _purchaseState,\n    uint256 _priceInWei\n    ) {\n        return (\n        _tokenId,\n        tokenIdToOwner[_tokenId],\n        tokenIdToMetadata[_tokenId],\n        tokenIdToEdition[_tokenId],\n        tokenIdToEditionNumber[_tokenId],\n        tokenIdToPurchased[_tokenId],\n        tokenIdToPriceInWei[_tokenId]\n        );\n    }\n}\n",
  "sourcePath": "/Users/jamesmorgan/Dropbox/workspace-blockrocket/known-origin-web3-marketplace/contracts/KnownOriginDigitalAsset.sol",
  "compiler": {
    "name": "solc",
    "version": "0.4.19+commit.c4cbbb05.Emscripten.clang"
  },
  "schemaVersion": "1.0.1",
  "updatedAt": "2018-02-22T20:20:41.168Z"
}