{
  "contractName": "KnownOriginDigitalAsset",
  "abi": [
    {
      "constant": true,
      "inputs": [],
      "name": "name",
      "outputs": [
        {
          "name": "",
          "type": "string"
        }
      ],
      "payable": false,
      "stateMutability": "view",
      "type": "function"
    },
    {
      "constant": true,
      "inputs": [
        {
          "name": "_tokenId",
          "type": "uint256"
        }
      ],
      "name": "getApproved",
      "outputs": [
        {
          "name": "",
          "type": "address"
        }
      ],
      "payable": false,
      "stateMutability": "view",
      "type": "function"
    },
    {
      "constant": false,
      "inputs": [
        {
          "name": "_to",
          "type": "address"
        },
        {
          "name": "_tokenId",
          "type": "uint256"
        }
      ],
      "name": "approve",
      "outputs": [],
      "payable": false,
      "stateMutability": "nonpayable",
      "type": "function"
    },
    {
      "constant": true,
      "inputs": [],
      "name": "totalSupply",
      "outputs": [
        {
          "name": "",
          "type": "uint256"
        }
      ],
      "payable": false,
      "stateMutability": "view",
      "type": "function"
    },
    {
      "constant": false,
      "inputs": [
        {
          "name": "_from",
          "type": "address"
        },
        {
          "name": "_to",
          "type": "address"
        },
        {
          "name": "_tokenId",
          "type": "uint256"
        }
      ],
      "name": "transferFrom",
      "outputs": [],
      "payable": false,
      "stateMutability": "nonpayable",
      "type": "function"
    },
    {
      "constant": true,
      "inputs": [],
      "name": "totalPurchaseValueInWei",
      "outputs": [
        {
          "name": "",
          "type": "uint256"
        }
      ],
      "payable": false,
      "stateMutability": "view",
      "type": "function"
    },
    {
      "constant": true,
      "inputs": [
        {
          "name": "_owner",
          "type": "address"
        },
        {
          "name": "_index",
          "type": "uint256"
        }
      ],
      "name": "tokenOfOwnerByIndex",
      "outputs": [
        {
          "name": "",
          "type": "uint256"
        }
      ],
      "payable": false,
      "stateMutability": "view",
      "type": "function"
    },
    {
      "constant": true,
      "inputs": [],
      "name": "tokenIdPointer",
      "outputs": [
        {
          "name": "",
          "type": "uint256"
        }
      ],
      "payable": false,
      "stateMutability": "view",
      "type": "function"
    },
    {
      "constant": true,
      "inputs": [],
      "name": "totalNumberOfPurchases",
      "outputs": [
        {
          "name": "",
          "type": "uint256"
        }
      ],
      "payable": false,
      "stateMutability": "view",
      "type": "function"
    },
    {
      "constant": false,
      "inputs": [
        {
          "name": "_from",
          "type": "address"
        },
        {
          "name": "_to",
          "type": "address"
        },
        {
          "name": "_tokenId",
          "type": "uint256"
        }
      ],
      "name": "safeTransferFrom",
      "outputs": [],
      "payable": false,
      "stateMutability": "nonpayable",
      "type": "function"
    },
    {
      "constant": true,
      "inputs": [
        {
          "name": "_tokenId",
          "type": "uint256"
        }
      ],
      "name": "exists",
      "outputs": [
        {
          "name": "",
          "type": "bool"
        }
      ],
      "payable": false,
      "stateMutability": "view",
      "type": "function"
    },
    {
      "constant": true,
      "inputs": [
        {
          "name": "_index",
          "type": "uint256"
        }
      ],
      "name": "tokenByIndex",
      "outputs": [
        {
          "name": "",
          "type": "uint256"
        }
      ],
      "payable": false,
      "stateMutability": "view",
      "type": "function"
    },
    {
      "constant": true,
      "inputs": [],
      "name": "InterfaceSignature_ERC721Optional",
      "outputs": [
        {
          "name": "",
          "type": "bytes4"
        }
      ],
      "payable": false,
      "stateMutability": "view",
      "type": "function"
    },
    {
      "constant": true,
      "inputs": [
        {
          "name": "_tokenId",
          "type": "uint256"
        }
      ],
      "name": "ownerOf",
      "outputs": [
        {
          "name": "",
          "type": "address"
        }
      ],
      "payable": false,
      "stateMutability": "view",
      "type": "function"
    },
    {
      "constant": true,
      "inputs": [
        {
          "name": "_owner",
          "type": "address"
        }
      ],
      "name": "balanceOf",
      "outputs": [
        {
          "name": "",
          "type": "uint256"
        }
      ],
      "payable": false,
      "stateMutability": "view",
      "type": "function"
    },
    {
      "constant": true,
      "inputs": [],
      "name": "symbol",
      "outputs": [
        {
          "name": "",
          "type": "string"
        }
      ],
      "payable": false,
      "stateMutability": "view",
      "type": "function"
    },
    {
      "constant": false,
      "inputs": [
        {
          "name": "_to",
          "type": "address"
        },
        {
          "name": "_approved",
          "type": "bool"
        }
      ],
      "name": "setApprovalForAll",
      "outputs": [],
      "payable": false,
      "stateMutability": "nonpayable",
      "type": "function"
    },
    {
      "constant": false,
      "inputs": [
        {
          "name": "_from",
          "type": "address"
        },
        {
          "name": "_to",
          "type": "address"
        },
        {
          "name": "_tokenId",
          "type": "uint256"
        },
        {
          "name": "_data",
          "type": "bytes"
        }
      ],
      "name": "safeTransferFrom",
      "outputs": [],
      "payable": false,
      "stateMutability": "nonpayable",
      "type": "function"
    },
    {
      "constant": true,
      "inputs": [],
      "name": "curatorAccount",
      "outputs": [
        {
          "name": "",
          "type": "address"
        }
      ],
      "payable": false,
      "stateMutability": "view",
      "type": "function"
    },
    {
      "constant": true,
      "inputs": [
        {
          "name": "_owner",
          "type": "address"
        },
        {
          "name": "_operator",
          "type": "address"
        }
      ],
      "name": "isApprovedForAll",
      "outputs": [
        {
          "name": "",
          "type": "bool"
        }
      ],
      "payable": false,
      "stateMutability": "view",
      "type": "function"
    },
    {
      "constant": true,
      "inputs": [],
      "name": "developerAccount",
      "outputs": [
        {
          "name": "",
          "type": "address"
        }
      ],
      "payable": false,
      "stateMutability": "view",
      "type": "function"
    },
    {
      "inputs": [
        {
          "name": "_curatorAccount",
          "type": "address"
        }
      ],
      "payable": false,
      "stateMutability": "nonpayable",
      "type": "constructor"
    },
    {
      "payable": true,
      "stateMutability": "payable",
      "type": "fallback"
    },
    {
      "anonymous": false,
      "inputs": [
        {
          "indexed": true,
          "name": "_tokenId",
          "type": "uint256"
        },
        {
          "indexed": true,
          "name": "_buyer",
          "type": "address"
        }
      ],
      "name": "PurchasedWithEther",
      "type": "event"
    },
    {
      "anonymous": false,
      "inputs": [
        {
          "indexed": true,
          "name": "_tokenId",
          "type": "uint256"
        }
      ],
      "name": "PurchasedWithFiat",
      "type": "event"
    },
    {
      "anonymous": false,
      "inputs": [
        {
          "indexed": true,
          "name": "_tokenId",
          "type": "uint256"
        }
      ],
      "name": "PurchasedWithFiatReversed",
      "type": "event"
    },
    {
      "anonymous": false,
      "inputs": [
        {
          "indexed": true,
          "name": "_from",
          "type": "address"
        },
        {
          "indexed": true,
          "name": "_to",
          "type": "address"
        },
        {
          "indexed": false,
          "name": "_tokenId",
          "type": "uint256"
        }
      ],
      "name": "Transfer",
      "type": "event"
    },
    {
      "anonymous": false,
      "inputs": [
        {
          "indexed": true,
          "name": "_owner",
          "type": "address"
        },
        {
          "indexed": true,
          "name": "_approved",
          "type": "address"
        },
        {
          "indexed": false,
          "name": "_tokenId",
          "type": "uint256"
        }
      ],
      "name": "Approval",
      "type": "event"
    },
    {
      "anonymous": false,
      "inputs": [
        {
          "indexed": true,
          "name": "_owner",
          "type": "address"
        },
        {
          "indexed": true,
          "name": "_operator",
          "type": "address"
        },
        {
          "indexed": false,
          "name": "_approved",
          "type": "bool"
        }
      ],
      "name": "ApprovalForAll",
      "type": "event"
    },
    {
      "constant": true,
      "inputs": [
        {
          "name": "_interfaceID",
          "type": "bytes4"
        }
      ],
      "name": "supportsInterface",
      "outputs": [
        {
          "name": "",
          "type": "bool"
        }
      ],
      "payable": false,
      "stateMutability": "pure",
      "type": "function"
    },
    {
      "constant": false,
      "inputs": [
        {
          "name": "_tokenURI",
          "type": "string"
        },
        {
          "name": "_edition",
          "type": "bytes16"
        },
        {
          "name": "_priceInWei",
          "type": "uint256"
        },
        {
          "name": "_auctionStartDate",
          "type": "uint32"
        },
        {
          "name": "_artistAccount",
          "type": "address"
        }
      ],
      "name": "mint",
      "outputs": [],
      "payable": false,
      "stateMutability": "nonpayable",
      "type": "function"
    },
    {
      "constant": false,
      "inputs": [
        {
          "name": "_tokenId",
          "type": "uint256"
        }
      ],
      "name": "burn",
      "outputs": [],
      "payable": false,
      "stateMutability": "nonpayable",
      "type": "function"
    },
    {
      "constant": false,
      "inputs": [
        {
          "name": "_tokenId",
          "type": "uint256"
        },
        {
          "name": "_uri",
          "type": "string"
        }
      ],
      "name": "setTokenURI",
      "outputs": [],
      "payable": false,
      "stateMutability": "nonpayable",
      "type": "function"
    },
    {
      "constant": false,
      "inputs": [
        {
          "name": "_tokenId",
          "type": "uint256"
        },
        {
          "name": "_priceInWei",
          "type": "uint256"
        }
      ],
      "name": "setPriceInWei",
      "outputs": [],
      "payable": false,
      "stateMutability": "nonpayable",
      "type": "function"
    },
    {
      "constant": false,
      "inputs": [
        {
          "name": "_type",
          "type": "string"
        },
        {
          "name": "_curator",
          "type": "uint8"
        },
        {
          "name": "_developer",
          "type": "uint8"
        }
      ],
      "name": "updateCommission",
      "outputs": [],
      "payable": false,
      "stateMutability": "nonpayable",
      "type": "function"
    },
    {
      "constant": true,
      "inputs": [
        {
          "name": "_type",
          "type": "string"
        }
      ],
      "name": "getCommissionForType",
      "outputs": [
        {
          "name": "_curator",
          "type": "uint8"
        },
        {
          "name": "_developer",
          "type": "uint8"
        }
      ],
      "payable": false,
      "stateMutability": "view",
      "type": "function"
    },
    {
      "constant": false,
      "inputs": [
        {
          "name": "_tokenId",
          "type": "uint256"
        }
      ],
      "name": "purchaseWithEther",
      "outputs": [],
      "payable": true,
      "stateMutability": "payable",
      "type": "function"
    },
    {
      "constant": false,
      "inputs": [
        {
          "name": "_tokenId",
          "type": "uint256"
        }
      ],
      "name": "purchaseWithFiat",
      "outputs": [],
      "payable": false,
      "stateMutability": "nonpayable",
      "type": "function"
    },
    {
      "constant": false,
      "inputs": [
        {
          "name": "_tokenId",
          "type": "uint256"
        }
      ],
      "name": "reverseFiatPurchase",
      "outputs": [],
      "payable": false,
      "stateMutability": "nonpayable",
      "type": "function"
    },
    {
      "constant": true,
      "inputs": [
        {
          "name": "_tokenId",
          "type": "uint256"
        }
      ],
      "name": "assetInfo",
      "outputs": [
        {
          "name": "_tokId",
          "type": "uint256"
        },
        {
          "name": "_owner",
          "type": "address"
        },
        {
          "name": "_purchaseState",
          "type": "uint8"
        },
        {
          "name": "_priceInWei",
          "type": "uint256"
        },
        {
          "name": "_purchaseFromTime",
          "type": "uint32"
        }
      ],
      "payable": false,
      "stateMutability": "view",
      "type": "function"
    },
    {
      "constant": true,
      "inputs": [
        {
          "name": "_tokenId",
          "type": "uint256"
        }
      ],
      "name": "editionInfo",
      "outputs": [
        {
          "name": "_tokId",
          "type": "uint256"
        },
        {
          "name": "_edition",
          "type": "bytes16"
        },
        {
          "name": "_editionNumber",
          "type": "uint256"
        },
        {
          "name": "_tokenURI",
          "type": "string"
        },
        {
          "name": "_artistAccount",
          "type": "address"
        }
      ],
      "payable": false,
      "stateMutability": "view",
      "type": "function"
    },
    {
      "constant": true,
      "inputs": [
        {
          "name": "_owner",
          "type": "address"
        }
      ],
      "name": "tokensOf",
      "outputs": [
        {
          "name": "_tokenIds",
          "type": "uint256[]"
        }
      ],
      "payable": false,
      "stateMutability": "view",
      "type": "function"
    },
    {
      "constant": true,
      "inputs": [
        {
          "name": "_edition",
          "type": "bytes16"
        }
      ],
      "name": "numberOf",
      "outputs": [
        {
          "name": "",
          "type": "uint256"
        }
      ],
      "payable": false,
      "stateMutability": "view",
      "type": "function"
    },
    {
      "constant": true,
      "inputs": [
        {
          "name": "_tokenId",
          "type": "uint256"
        }
      ],
      "name": "isPurchased",
      "outputs": [
        {
          "name": "_purchased",
          "type": "uint8"
        }
      ],
      "payable": false,
      "stateMutability": "view",
      "type": "function"
    },
    {
      "constant": true,
      "inputs": [
        {
          "name": "_tokenId",
          "type": "uint256"
        }
      ],
      "name": "editionOf",
      "outputs": [
        {
          "name": "_edition",
          "type": "bytes16"
        }
      ],
      "payable": false,
      "stateMutability": "view",
      "type": "function"
    },
    {
      "constant": true,
      "inputs": [
        {
          "name": "_tokenId",
          "type": "uint256"
        }
      ],
      "name": "purchaseFromTime",
      "outputs": [
        {
          "name": "_purchaseFromTime",
          "type": "uint32"
        }
      ],
      "payable": false,
      "stateMutability": "view",
      "type": "function"
    },
    {
      "constant": true,
      "inputs": [
        {
          "name": "_tokenId",
          "type": "uint256"
        }
      ],
      "name": "priceInWei",
      "outputs": [
        {
          "name": "_priceInWei",
          "type": "uint256"
        }
      ],
      "payable": false,
      "stateMutability": "view",
      "type": "function"
    },
    {
      "constant": true,
      "inputs": [
        {
          "name": "_edition",
          "type": "bytes16"
        }
      ],
      "name": "getTypeFromEdition",
      "outputs": [
        {
          "name": "",
          "type": "string"
        }
      ],
      "payable": false,
      "stateMutability": "pure",
      "type": "function"
    },
    {
      "constant": true,
      "inputs": [
        {
          "name": "_tokenId",
          "type": "uint256"
        }
      ],
      "name": "tokenURI",
      "outputs": [
        {
          "name": "",
          "type": "string"
        }
      ],
      "payable": false,
      "stateMutability": "view",
      "type": "function"
    },
    {
      "constant": false,
      "inputs": [
        {
          "name": "_newBaseURI",
          "type": "string"
        }
      ],
      "name": "setTokenBaseURI",
      "outputs": [],
      "payable": false,
      "stateMutability": "nonpayable",
      "type": "function"
    },
    {
      "constant": false,
      "inputs": [
        {
          "name": "_edition",
          "type": "bytes16"
        },
        {
          "name": "_artistAccount",
          "type": "address"
        }
      ],
      "name": "setArtistAccount",
      "outputs": [],
      "payable": false,
      "stateMutability": "nonpayable",
      "type": "function"
    }
  ],
  "bytecode": "0x606060405260408051908101604052601c81527f68747470733a2f2f697066732e696e667572612e696f2f697066732f000000006020820152600b9080516200004d92916020019062000142565b50600060105534156200005f57600080fd5b60405160208062002dfa8339810160405280805191506040905080519081016040908152601782527f4b6e6f776e4f726967696e4469676974616c41737365740000000000000000006020830152805190810160405260048082527f4b4f4441000000000000000000000000000000000000000000000000000000006020830152828051620000f392916020019062000142565b5060058180516200010992916020019062000142565b5050600d8054600160a060020a03338116600160a060020a031992831617909255600c80549490921693169290921790915550620001e7565b828054600181600116156101000203166002900490600052602060002090601f016020900481019282601f106200018557805160ff1916838001178555620001b5565b82800160010185558215620001b5579182015b82811115620001b557825182559160200191906001019062000198565b50620001c3929150620001c7565b5090565b620001e491905b80821115620001c35760008155600101620001ce565b90565b612c0380620001f76000396000f30060606040526004361061020e5763ffffffff7c010000000000000000000000000000000000000000000000000000000060003504166301ffc9a7811461021357806306fdde0314610247578063081812fc146102d1578063095ea7b314610303578063162094c41461032757806318160ddd1461034957806318714bc81461036e57806323b872dd146103845780632852ca81146103ac5780632bbd84e8146103cc5780632c9f4f62146103df5780632f745c59146104195780633b3a1a7a1461043b5780634082b4991461044e57806342842e0e1461046157806342966c68146104895780634be185f01461049f5780634f558e79146104d25780634f6ccce7146104e85780635a3f2672146104fe578063624de3d9146105705780636352211e146105a05780636af79112146105b657806370a08231146105cc57806374b04fa7146105eb5780637e298249146106175780637e38b424146106305780638ef79e911461064657806395d89b4114610664578063a22cb46514610677578063a879fcbb1461069b578063a92ca27d14610706578063afe70413146107c3578063b88d4fde14610832578063c3b7572c1461089e578063c87b56dd146108ca578063d4f74bf4146108e0578063d5b0c0d5146108f3578063e6153d1b14610913578063e6db38c714610958578063e985e9c514610987578063f4ce7c1c146109ac578063f6ec91d5146109b7575b600080fd5b341561021e57600080fd5b610233600160e060020a0319600435166109ca565b604051901515815260200160405180910390f35b341561025257600080fd5b61025a610acf565b60405160208082528190810183818151815260200191508051906020019080838360005b8381101561029657808201518382015260200161027e565b50505050905090810190601f1680156102c35780820380516001836020036101000a031916815260200191505b509250505060405180910390f35b34156102dc57600080fd5b6102e7600435610b78565b604051600160a060020a03909116815260200160405180910390f35b341561030e57600080fd5b610325600160a060020a0360043516602435610b93565b005b341561033257600080fd5b610325600480359060248035908101910135610c82565b341561035457600080fd5b61035c610d05565b60405190815260200160405180910390f35b341561037957600080fd5b610325600435610d0b565b341561038f57600080fd5b610325600160a060020a0360043581169060243516604435610dff565b34156103b757600080fd5b61025a6001608060020a031960043516610eaa565b34156103d757600080fd5b61035c610ebf565b34156103ea57600080fd5b6103f5600435610ec5565b6040518082600281111561040557fe5b60ff16815260200191505060405180910390f35b341561042457600080fd5b61035c600160a060020a0360043516602435610ef1565b341561044657600080fd5b61035c610f3f565b341561045957600080fd5b61035c610f45565b341561046c57600080fd5b610325600160a060020a0360043581169060243516604435610f4b565b341561049457600080fd5b610325600435610f81565b34156104aa57600080fd5b6104b56004356110ed565b6040516001608060020a0319909116815260200160405180910390f35b34156104dd57600080fd5b610233600435611129565b34156104f357600080fd5b61035c600435611146565b341561050957600080fd5b61051d600160a060020a036004351661117c565b60405160208082528190810183818151815260200191508051906020019060200280838360005b8381101561055c578082015183820152602001610544565b505050509050019250505060405180910390f35b341561057b57600080fd5b6105836111ff565b604051600160e060020a0319909116815260200160405180910390f35b34156105ab57600080fd5b6102e7600435611223565b34156105c157600080fd5b61035c600435611247565b34156105d757600080fd5b61035c600160a060020a0360043516611270565b34156105f657600080fd5b6103256001608060020a031960043516600160a060020a03602435166112a3565b341561062257600080fd5b610325600435602435611328565b341561063b57600080fd5b6103256004356113ae565b341561065157600080fd5b61032560048035602481019101356114a0565b341561066f57600080fd5b61025a6114e2565b341561068257600080fd5b610325600160a060020a03600435166024351515611555565b34156106a657600080fd5b6106b16004356115e6565b604051858152600160a060020a0385166020820152604081018460028111156106d657fe5b60ff1681526020018381526020018263ffffffff1663ffffffff1681526020019550505050505060405180910390f35b341561071157600080fd5b61071c60043561162f565b6040518581526001608060020a03198516602082015260408101849052600160a060020a038216608082015260a06060820181815290820184818151815260200191508051906020019080838360005b8381101561078457808201518382015260200161076c565b50505050905090810190601f1680156107b15780820380516001836020036101000a031916815260200191505b50965050505050505060405180910390f35b34156107ce57600080fd5b61081460046024813581810190830135806020601f820181900481020160405190810160405281815292919060208401838380828437509496506116b995505050505050565b60405160ff9283168152911660208201526040908101905180910390f35b341561083d57600080fd5b610325600160a060020a036004803582169160248035909116916044359160849060643590810190830135806020601f8201819004810201604051908101604052818152929190602084018383808284375094965061173a95505050505050565b34156108a957600080fd5b610325602460048035828101929101359060ff903581169060443516611779565b34156108d557600080fd5b61025a600435611855565b34156108eb57600080fd5b6102e76119ac565b34156108fe57600080fd5b61035c6001608060020a0319600435166119bb565b341561091e57600080fd5b61032560246004803582810192910135906001608060020a031990351660443563ffffffff60643516600160a060020a03608435166119d7565b341561096357600080fd5b61096e600435611aca565b60405163ffffffff909116815260200160405180910390f35b341561099257600080fd5b610233600160a060020a0360043581169060243516611af9565b610325600435611b27565b34156109c257600080fd5b6102e7611cab565b6000600160e060020a031982167f01ffc9a7000000000000000000000000000000000000000000000000000000001480610a2d5750600160e060020a031982167f80ac58cd00000000000000000000000000000000000000000000000000000000145b80610a615750600160e060020a031982167fb0aa718700000000000000000000000000000000000000000000000000000000145b80610a955750600160e060020a031982167f780e9d6300000000000000000000000000000000000000000000000000000000145b80610ac95750600160e060020a031982167f5b5e139f00000000000000000000000000000000000000000000000000000000145b92915050565b610ad7612a3d565b60048054600181600116156101000203166002900480601f016020809104026020016040519081016040528092919081815260200182805460018160011615610100020316600290048015610b6d5780601f10610b4257610100808354040283529160200191610b6d565b820191906000526020600020905b815481529060010190602001808311610b5057829003601f168201915b505050505090505b90565b600090815260016020526040902054600160a060020a031690565b6000610b9e82611223565b9050600160a060020a038381169082161415610bb957600080fd5b80600160a060020a031633600160a060020a03161480610bde5750610bde8133611af9565b1515610be957600080fd5b6000610bf483610b78565b600160a060020a0316141580610c125750600160a060020a03831615155b15610c7d57600082815260016020526040908190208054600160a060020a031916600160a060020a0386811691821790925591908316907f8c5be1e5ebec7d5bd14f71427d1e84f3dd0314c0f7b2291e5b200ac8c7c3b9259085905190815260200160405180910390a35b505050565b600c5433600160a060020a0390811691161480610cad5750600d5433600160a060020a039081169116145b1515610cb857600080fd5b610cc183611129565b1515610ccc57600080fd5b610c7d8383838080601f016020809104026020016040519081016040528181529291906020840183838082843750611cba945050505050565b60085490565b600c5433600160a060020a0390811691161480610d365750600d5433600160a060020a039081169116145b1515610d4157600080fd5b806000808281526012602052604090205460ff166002811115610d6057fe5b14610d6a57600080fd5b60008281526015602052604090205482904263ffffffff9091161115610d8f57600080fd5b610d9883611129565b1515610da357600080fd5b6000838152601260205260409020805460ff19166002179055600f54610dca906001611ced565b600f55827f0bdb01638ac3be385d9ab692cf4661a5777d486d2b58eee4bad9b76374954c7260405160405180910390a2505050565b80610e0a3382611d03565b1515610e1557600080fd5b600160a060020a0384161515610e2a57600080fd5b600160a060020a0383161515610e3f57600080fd5b610e498483611d62565b610e538483611e05565b610e5d8383611f33565b82600160a060020a031684600160a060020a03167fddf252ad1be2c89b69c2b068fc378daa952ba7f163c4a11628f55a4df523b3ef8460405190815260200160405180910390a350505050565b610eb2612a3d565b610ac982600d6010611f8d565b600e5481565b6000610ed082611129565b1515610edb57600080fd5b5060009081526012602052604090205460ff1690565b6000610efc83611270565b8210610f0757600080fd5b600160a060020a0383166000908152600660205260409020805483908110610f2b57fe5b906000526020600020900154905092915050565b60105481565b600f5481565b80610f563382611d03565b1515610f6157600080fd5b610f7b84848460206040519081016040526000815261173a565b50505050565b600c5460009033600160a060020a0390811691161480610faf5750600d5433600160a060020a039081169116145b1515610fba57600080fd5b816000808281526012602052604090205460ff166002811115610fd957fe5b14610fe357600080fd5b600c546000848152602081905260409020548491600160a060020a039182169116148061102c5750600d54600082815260208190526040902054600160a060020a039081169116145b151561103757600080fd5b61104084611129565b151561104b57600080fd5b61105d61105785611223565b85612034565b600084815260136020908152604080832080546001608060020a03198082169092556014845282852085905560158452828520805463ffffffff191690557001000000000000000000000000000000000290811684526016909252909120549093506110ca90600161212f565b6001608060020a0319909316600090815260166020526040902092909255505050565b60006110f882611129565b151561110357600080fd5b506000908152601360205260409020547001000000000000000000000000000000000290565b600090815260208190526040902054600160a060020a0316151590565b6000611150610d05565b821061115b57600080fd5b600880548390811061116957fe5b9060005260206000209001549050919050565b611184612a3d565b6006600083600160a060020a0316600160a060020a031681526020019081526020016000208054806020026020016040519081016040528092919081815260200182805480156111f357602002820191906000526020600020905b8154815260200190600101908083116111df575b50505050509050919050565b7fb0aa71870000000000000000000000000000000000000000000000000000000081565b600081815260208190526040812054600160a060020a0316801515610ac957600080fd5b600061125282611129565b151561125d57600080fd5b5060009081526014602052604090205490565b6000600160a060020a038216151561128757600080fd5b50600160a060020a031660009081526002602052604090205490565b600c5433600160a060020a03908116911614806112ce5750600d5433600160a060020a039081169116145b15156112d957600080fd5b600160a060020a03811615156112ee57600080fd5b6001608060020a03199190911660009081526017602052604090208054600160a060020a031916600160a060020a03909216919091179055565b600c5433600160a060020a03908116911614806113535750600d5433600160a060020a039081169116145b151561135e57600080fd5b816000808281526012602052604090205460ff16600281111561137d57fe5b1461138757600080fd5b61139083611129565b151561139b57600080fd5b5060009182526014602052604090912055565b600c5433600160a060020a03908116911614806113d95750600d5433600160a060020a039081169116145b15156113e457600080fd5b80600260008281526012602052604090205460ff16600281111561140457fe5b1461140e57600080fd5b60008281526015602052604090205482904263ffffffff909116111561143357600080fd5b61143c83611129565b151561144757600080fd5b6000838152601260205260409020805460ff19169055600f5461146b90600161212f565b600f55827fb86b57a33124aa41b48d51668d80c57a403632f755dc2fb969ca0b0d8aded10a60405160405180910390a2505050565b600c5433600160a060020a03908116911614806114cb5750600d5433600160a060020a039081169116145b15156114d657600080fd5b610c7d600b8383612a4f565b6114ea612a3d565b60058054600181600116156101000203166002900480601f016020809104026020016040519081016040528092919081815260200182805460018160011615610100020316600290048015610b6d5780601f10610b4257610100808354040283529160200191610b6d565b33600160a060020a031682600160a060020a03161415151561157657600080fd5b33600160a060020a0390811660008181526003602090815260408083209487168084529490915290819020805460ff19168515151790557f17307eab39ab6107e8899845ad3d59bd9653f200f220920489ca2b5937696c3190849051901515815260200160405180910390a35050565b6000818152602081815260408083205460128352818420546014845282852054601590945291909320549394600160a060020a039093169360ff9091169263ffffffff90911690565b600080600061163c612a3d565b600085815260136020908152604080832054700100000000000000000000000000000000026001608060020a03198116845260169092528220548790829061168383611855565b6001608060020a031994909416600090815260176020526040902054929a9199509750919550600160a060020a03169350915050565b60008060006011846040518082805190602001908083835b602083106116f05780518252601f1990920191602091820191016116d1565b6001836020036101000a0380198251168184511680821785525050505050509050019150509081526020016040519081900390205460ff8082169661010090920416945092505050565b816117453382611d03565b151561175057600080fd5b61175b858585610dff565b61176785858585612141565b151561177257600080fd5b5050505050565b600c5433600160a060020a03908116911614806117a45750600d5433600160a060020a039081169116145b15156117af57600080fd5b600060ff8316116117bf57600080fd5b600060ff8216116117cf57600080fd5b606460ff83830116106117e157600080fd5b60408051908101604052808360ff1681526020018260ff1681525060118585604051808383808284378201915050925050509081526020016040519081900390208151815460ff191660ff919091161781556020820151815460ff919091166101000261ff00199091161790555050505050565b61185d612a3d565b610ac9600b8054600181600116156101000203166002900480601f0160208091040260200160405190810160405280929190818152602001828054600181600116156101000203166002900480156118f65780601f106118cb576101008083540402835291602001916118f6565b820191906000526020600020905b8154815290600101906020018083116118d957829003601f168201915b5050505050600a60008581526020019081526020016000208054600181600116156101000203166002900480601f0160208091040260200160405190810160405280929190818152602001828054600181600116156101000203166002900480156119a25780601f10611977576101008083540402835291602001916119a2565b820191906000526020600020905b81548152906001019060200180831161198557829003601f168201915b505050505061229b565b600c54600160a060020a031681565b6001608060020a03191660009081526016602052604090205490565b600c5460009033600160a060020a0390811691161480611a055750600d5433600160a060020a039081169116145b1515611a1057600080fd5b600160a060020a0382161515611a2557600080fd5b50601054611a3333826122de565b611a6c8188888080601f016020809104026020016040519081016040528181529291906020840183838082843750611cba945050505050565b6001608060020a0319851660009081526017602052604090208054600160a060020a031916600160a060020a038416179055611aaa8186868661231b565b601054611abe90600163ffffffff611ced16565b60105550505050505050565b6000611ad582611129565b1515611ae057600080fd5b5060009081526015602052604090205463ffffffff1690565b600160a060020a03918216600090815260036020908152604080832093909416825291909152205460ff1690565b6000818160008281526012602052604090205460ff166002811115611b4857fe5b14611b5257600080fd5b600c546000848152602081905260409020548491600160a060020a0391821691161480611b9b5750600d54600082815260208190526040902054600160a060020a039081169116145b1515611ba657600080fd5b60008481526015602052604090205484904263ffffffff9091161115611bcb57600080fd5b611bd485611129565b1515611bdf57600080fd5b60008581526014602052604090205493503484901015611bfe57600080fd5b611c0833866123be565b611c1b611c1486611223565b3387610f4b565b6000858152601260205260409020805460ff19166001179055600e54611c419034611ced565b600e55600f54611c5890600163ffffffff611ced16565b600f556000841115611c6d57611c6d8561244a565b33600160a060020a0316857f3817d9a4b057a227bd53f7fa5d4f61f04e716166b150ff09a06fa830f10cb50160405160405180910390a35050505050565b600d54600160a060020a031681565b611cc382611129565b1515611cce57600080fd5b6000828152600a60205260409020818051610c7d929160200190612acd565b600082820183811015611cfc57fe5b9392505050565b600080611d0f83611223565b905080600160a060020a031684600160a060020a03161480611d4a575083600160a060020a0316611d3f84610b78565b600160a060020a0316145b80611d5a5750611d5a8185611af9565b949350505050565b81600160a060020a0316611d7582611223565b600160a060020a031614611d8857600080fd5b600081815260016020526040902054600160a060020a031615611e01576000818152600160205260408082208054600160a060020a0319169055600160a060020a038416907f8c5be1e5ebec7d5bd14f71427d1e84f3dd0314c0f7b2291e5b200ac8c7c3b9259084905190815260200160405180910390a35b5050565b6000806000611e148585612602565b600084815260076020908152604080832054600160a060020a0389168452600690925290912054909350611e4f90600163ffffffff61212f16565b600160a060020a038616600090815260066020526040902080549193509083908110611e7757fe5b6000918252602080832090910154600160a060020a0388168352600690915260409091208054919250829185908110611eac57fe5b6000918252602080832090910192909255600160a060020a0387168152600690915260408120805484908110611ede57fe5b6000918252602080832090910192909255600160a060020a0387168152600690915260409020805490611f15906000198301612b3b565b50600093845260076020526040808520859055908452909220555050565b6000611f3f838361268a565b50600160a060020a03821660009081526006602052604090208054908160018101611f6a8382612b3b565b506000918252602080832091909101849055928152600790925260409091205550565b611f95612a3d565b611f9d612a3d565b60008085850360ff16604051805910611fb35750595b818152601f19601f830116810160200160405290509250600091508590505b8460ff168160ff161015612029578660ff821660108110611fef57fe5b1a60f860020a02838360ff168151811061200557fe5b906020010190600160f860020a031916908160001a90535060019182019101611fd2565b509095945050505050565b6000806000612043858561270c565b6000848152600a60205260409020546002600019610100600184161502019091160415612081576000848152600a6020526040812061208191612b5f565b6000848152600960205260409020546008549093506120a790600163ffffffff61212f16565b91506008828154811015156120b857fe5b9060005260206000209001549050806008848154811015156120d657fe5b600091825260208220019190915560088054849081106120f257fe5b6000918252602090912001556008805490612111906000198301612b3b565b50600093845260096020526040808520859055908452909220555050565b60008282111561213b57fe5b50900390565b60008061215685600160a060020a0316612763565b15156121655760019150612292565b84600160a060020a031663f0b9e5ba8786866040518463ffffffff167c01000000000000000000000000000000000000000000000000000000000281526004018084600160a060020a0316600160a060020a0316815260200183815260200180602001828103825283818151815260200191508051906020019080838360005b838110156121fd5780820151838201526020016121e5565b50505050905090810190601f16801561222a5780820380516001836020036101000a031916815260200191505b50945050505050602060405180830381600087803b151561224a57600080fd5b5af1151561225757600080fd5b5050506040518051600160e060020a031981167ff0b9e5ba000000000000000000000000000000000000000000000000000000001493509150505b50949350505050565b6122a3612a3d565b611cfc83836020604051908101604052806000815250602060405190810160405280600081525060206040519081016040526000815261276b565b6122e882826129db565b6008805460008381526009602052604090208190556001810161230b8382612b3b565b5060009182526020909120015550565b6000848152601360209081526040808320805470010000000000000000000000000000000088046001608060020a03199182161790915586168352601690915290205461236f90600163ffffffff611ced16565b6001608060020a0319939093166000908152601660209081526040808320959095559481526014855283812092909255601590935220805463ffffffff191663ffffffff909216919091179055565b60006123c982611223565b9050600160a060020a03831615156123e057600080fd5b600082815260016020526040908190208054600160a060020a031916600160a060020a0386811691821790925591908316907f8c5be1e5ebec7d5bd14f71427d1e84f3dd0314c0f7b2291e5b200ac8c7c3b9259085905190815260200160405180910390a3505050565b6000612454612a3d565b61245c612ba6565b60008481526013602052604081205470010000000000000000000000000000000002935080808061248c87610eaa565b95506011866040518082805190602001908083835b602083106124c05780518252601f1990920191602091820191016124a1565b6001836020036101000a038019825116818451168082178552505050505050905001915050908152602001604051809103902060408051908101604052905460ff80821683526101009091041660208201529450845160ff16606434600c54919004919091029450600160a060020a031684156108fc0285604051600060405180830381858888f19350505050151561255857600080fd5b846020015160ff16606434600d54919004919091029350600160a060020a031683156108fc0284604051600060405180830381858888f19350505050151561259f57600080fd5b50506001608060020a031985166000908152601760205260409081902054838301340391600160a060020a0390911690819083156108fc0290849051600060405180830381858888f1935050505015156125f857600080fd5b5050505050505050565b81600160a060020a031661261582611223565b600160a060020a03161461262857600080fd5b600160a060020a03821660009081526002602052604090205461265290600163ffffffff61212f16565b600160a060020a0390921660009081526002602090815260408083209490945591815290819052208054600160a060020a0319169055565b600081815260208190526040902054600160a060020a0316156126ac57600080fd5b6000818152602081815260408083208054600160a060020a031916600160a060020a038716908117909155835260029091529020546126ec906001611ced565b600160a060020a0390921660009081526002602052604090209190915550565b6127168282611d62565b6127208282611e05565b6000600160a060020a0383167fddf252ad1be2c89b69c2b068fc378daa952ba7f163c4a11628f55a4df523b3ef8360405190815260200160405180910390a35050565b6000903b1190565b612773612a3d565b61277b612a3d565b612783612a3d565b61278b612a3d565b612793612a3d565b61279b612a3d565b6127a3612a3d565b6127ab612a3d565b6000808e98508d97508c96508b95508a94508451865188518a518c51010101016040518059106127d85750595b818152601f19601f83011681016020016040529050935083925060009150600090505b88518110156128545788818151811061281057fe5b016020015160f860020a900460f860020a0283838060010194508151811061283457fe5b906020010190600160f860020a031916908160001a9053506001016127fb565b5060005b87518110156128b15787818151811061286d57fe5b016020015160f860020a900460f860020a0283838060010194508151811061289157fe5b906020010190600160f860020a031916908160001a905350600101612858565b5060005b865181101561290e578681815181106128ca57fe5b016020015160f860020a900460f860020a028383806001019450815181106128ee57fe5b906020010190600160f860020a031916908160001a9053506001016128b5565b5060005b855181101561296b5785818151811061292757fe5b016020015160f860020a900460f860020a0283838060010194508151811061294b57fe5b906020010190600160f860020a031916908160001a905350600101612912565b5060005b84518110156129c85784818151811061298457fe5b016020015160f860020a900460f860020a028383806001019450815181106129a857fe5b906020010190600160f860020a031916908160001a90535060010161296f565b50909d9c50505050505050505050505050565b600160a060020a03821615156129f057600080fd5b6129fa8282611f33565b600160a060020a03821660007fddf252ad1be2c89b69c2b068fc378daa952ba7f163c4a11628f55a4df523b3ef8360405190815260200160405180910390a35050565b60206040519081016040526000815290565b828054600181600116156101000203166002900490600052602060002090601f016020900481019282601f10612a905782800160ff19823516178555612abd565b82800160010185558215612abd579182015b82811115612abd578235825591602001919060010190612aa2565b50612ac9929150612bbd565b5090565b828054600181600116156101000203166002900490600052602060002090601f016020900481019282601f10612b0e57805160ff1916838001178555612abd565b82800160010185558215612abd579182015b82811115612abd578251825591602001919060010190612b20565b815481835581811511610c7d57600083815260209020610c7d918101908301612bbd565b50805460018160011615610100020316600290046000825580601f10612b855750612ba3565b601f016020900490600052602060002090810190612ba39190612bbd565b50565b604080519081016040526000808252602082015290565b610b7591905b80821115612ac95760008155600101612bc35600a165627a7a723058204c1964d9912e723f1aa7123939f8f4cddb97095a442d81d24167dadbf6641ec50029",
  "source": "pragma solidity ^0.4.21;\n\n\nimport \"./ERC721Token.sol\";\n\nimport \"./Strings.sol\";\n\nimport \"./ERC165.sol\";\n\n/**\n* @title KnownOriginDigitalAsset\n*\n* http://www.knownorigin.io/\n*\n* ERC721 compliant digital assets for real-world artwork.\n* BE ORIGINAL. BUY ORIGINAL.\n*\n*/\ncontract KnownOriginDigitalAsset is ERC721Token, ERC165 {\n  using SafeMath for uint256;\n\n  bytes4 constant InterfaceSignature_ERC165 = 0x01ffc9a7;\n    /*\n    bytes4(keccak256('supportsInterface(bytes4)'));\n    */\n\n  bytes4 constant InterfaceSignature_ERC721Enumerable = 0x780e9d63;\n    /*\n    bytes4(keccak256('totalSupply()')) ^\n    bytes4(keccak256('tokenOfOwnerByIndex(address,uint256)')) ^\n    bytes4(keccak256('tokenByIndex(uint256)'));\n    */\n\n  bytes4 constant InterfaceSignature_ERC721Metadata = 0x5b5e139f;\n    /*\n    bytes4(keccak256('name()')) ^\n    bytes4(keccak256('symbol()')) ^\n    bytes4(keccak256('tokenURI(uint256)'));\n    */\n\n  bytes4 constant InterfaceSignature_ERC721 = 0x80ac58cd;\n    /*\n    bytes4(keccak256('balanceOf(address)')) ^\n    bytes4(keccak256('ownerOf(uint256)')) ^\n    bytes4(keccak256('approve(address,uint256)')) ^\n    bytes4(keccak256('getApproved(uint256)')) ^\n    bytes4(keccak256('setApprovalForAll(address,bool)')) ^\n    bytes4(keccak256('isApprovedForAll(address,address)')) ^\n    bytes4(keccak256('transferFrom(address,address,uint256)')) ^\n    bytes4(keccak256('safeTransferFrom(address,address,uint256)')) ^\n    bytes4(keccak256('safeTransferFrom(address,address,uint256,bytes)'));\n    */\n\n  bytes4 public constant InterfaceSignature_ERC721Optional =- 0x4f558e79;\n    /*\n    bytes4(keccak256('exists(uint256)'));\n    */\n\n  /**\n   * @notice Introspection interface as per ERC-165 (https://github.com/ethereum/EIPs/issues/165).\n   * @dev Returns true for any standardized interfaces implemented by this contract.\n   * @param _interfaceID bytes4 the interface to check for\n   * @return true for any standardized interfaces implemented by this contract.\n   */\n  function supportsInterface(bytes4 _interfaceID) external pure returns (bool) {\n    return ((_interfaceID == InterfaceSignature_ERC165)\n    || (_interfaceID == InterfaceSignature_ERC721)\n    || (_interfaceID == InterfaceSignature_ERC721Optional)\n    || (_interfaceID == InterfaceSignature_ERC721Enumerable)\n    || (_interfaceID == InterfaceSignature_ERC721Metadata));\n  }\n\n  struct CommissionStructure {\n    uint8 curator;\n    uint8 developer;\n  }\n\n  string internal tokenBaseURI = \"https://ipfs.infura.io/ipfs/\";\n\n  // creates and owns the original assets all primary purchases transferred to this account\n  address public curatorAccount;\n\n  // the person who is responsible for designing and building the contract\n  address public developerAccount;\n\n  // total wei been processed through the contract\n  uint256 public totalPurchaseValueInWei;\n\n  // number of assets sold of any type\n  uint256 public totalNumberOfPurchases;\n\n  // A pointer to the next token to be minted, zero indexed\n  uint256 public tokenIdPointer = 0;\n\n  enum PurchaseState {Unsold, EtherPurchase, FiatPurchase}\n\n  mapping(string => CommissionStructure) internal editionTypeToCommission;\n  mapping(uint256 => PurchaseState) internal tokenIdToPurchased;\n\n  mapping(uint256 => bytes16) internal tokenIdToEdition;\n  mapping(uint256 => uint256) internal tokenIdToPriceInWei;\n  mapping(uint256 => uint32) internal tokenIdToPurchaseFromTime;\n\n  mapping(bytes16 => uint256) internal editionToEditionNumber;\n  mapping(bytes16 => address) internal editionToArtistAccount;\n\n  event PurchasedWithEther(uint256 indexed _tokenId, address indexed _buyer);\n\n  event PurchasedWithFiat(uint256 indexed _tokenId);\n\n  event PurchasedWithFiatReversed(uint256 indexed _tokenId);\n\n  modifier onlyCurator() {\n    require(msg.sender == curatorAccount);\n    _;\n  }\n\n  modifier onlyUnsold(uint256 _tokenId) {\n    require(tokenIdToPurchased[_tokenId] == PurchaseState.Unsold);\n    _;\n  }\n\n  modifier onlyFiatPurchased(uint256 _tokenId) {\n    require(tokenIdToPurchased[_tokenId] == PurchaseState.FiatPurchase);\n    _;\n  }\n\n  modifier onlyKnownOriginOwnedToken(uint256 _tokenId) {\n    require(tokenOwner[_tokenId] == curatorAccount || tokenOwner[_tokenId] == developerAccount);\n    _;\n  }\n\n  modifier onlyKnownOrigin() {\n    require(msg.sender == curatorAccount || msg.sender == developerAccount);\n    _;\n  }\n\n  modifier onlyAfterPurchaseFromTime(uint256 _tokenId) {\n    require(tokenIdToPurchaseFromTime[_tokenId] <= block.timestamp);\n    _;\n  }\n\n  function KnownOriginDigitalAsset(address _curatorAccount) public ERC721Token(\"KnownOriginDigitalAsset\", \"KODA\") {\n    developerAccount = msg.sender;\n    curatorAccount = _curatorAccount;\n  }\n\n  // don't accept payment directly to contract\n  function() public payable {\n    revert();\n  }\n\n  /**\n   * @dev Mint a new KODA token\n   * @dev Reverts if not called by management\n   * @param _tokenURI the IPFS or equivalent hash\n   * @param _edition the identifier of the edition - leading 3 bytes are the artist code, trailing 3 bytes are the asset type\n   * @param _priceInWei the price of the KODA token\n   * @param _auctionStartDate the date when the token is available for sale\n   */\n  function mint(string _tokenURI, bytes16 _edition, uint256 _priceInWei, uint32 _auctionStartDate, address _artistAccount) external onlyKnownOrigin {\n    require(_artistAccount != address(0));\n\n    uint256 _tokenId = tokenIdPointer;\n\n    super._mint(msg.sender, _tokenId);\n    super._setTokenURI(_tokenId, _tokenURI);\n\n    editionToArtistAccount[_edition] = _artistAccount;\n\n    _populateTokenData(_tokenId, _edition, _priceInWei, _auctionStartDate);\n\n    tokenIdPointer = tokenIdPointer.add(1);\n  }\n\n  function _populateTokenData(uint _tokenId, bytes16 _edition, uint256 _priceInWei, uint32 _purchaseFromTime) internal {\n    tokenIdToEdition[_tokenId] = _edition;\n    editionToEditionNumber[_edition] = editionToEditionNumber[_edition].add(1);\n    tokenIdToPriceInWei[_tokenId] = _priceInWei;\n    tokenIdToPurchaseFromTime[_tokenId] = _purchaseFromTime;\n  }\n\n  /**\n   * @dev Burns a KODA token\n   * @dev Reverts if token is not unsold or not owned by management\n   * @param _tokenId the KODA token ID\n   */\n  function burn(uint256 _tokenId) public onlyKnownOrigin onlyUnsold(_tokenId) onlyKnownOriginOwnedToken(_tokenId) {\n    require(exists(_tokenId));\n    super._burn(ownerOf(_tokenId), _tokenId);\n\n    bytes16 edition = tokenIdToEdition[_tokenId];\n\n    delete tokenIdToEdition[_tokenId];\n    delete tokenIdToPriceInWei[_tokenId];\n    delete tokenIdToPurchaseFromTime[_tokenId];\n\n    editionToEditionNumber[edition] = editionToEditionNumber[edition].sub(1);\n  }\n\n  /**\n   * @dev Utility function for updating a KODA assets token URI\n   * @dev Reverts if not called by management\n   * @param _tokenId the KODA token ID\n   * @param _uri the token URI, will be concatenated with baseUri\n   */\n  function setTokenURI(uint256 _tokenId, string _uri) external onlyKnownOrigin {\n    require(exists(_tokenId));\n    _setTokenURI(_tokenId, _uri);\n  }\n\n  /**\n   * @dev Utility function for updating a KODA assets price\n   * @dev Reverts if token is not unsold or not called by management\n   * @param _tokenId the KODA token ID\n   * @param _priceInWei the price in wei\n   */\n  function setPriceInWei(uint _tokenId, uint256 _priceInWei) external onlyKnownOrigin onlyUnsold(_tokenId) {\n    require(exists(_tokenId));\n    tokenIdToPriceInWei[_tokenId] = _priceInWei;\n  }\n\n  /**\n   * @dev Used to pre-approve a purchaser in order for internal purchase methods\n   * to succeed without calling approve() directly\n   * @param _tokenId the KODA token ID\n   * @return address currently approved for a the given token ID\n   */\n  function _approvePurchaser(address _to, uint256 _tokenId) internal {\n    address owner = ownerOf(_tokenId);\n    require(_to != address(0));\n\n    tokenApprovals[_tokenId] = _to;\n    Approval(owner, _to, _tokenId);\n  }\n\n  /**\n   * @dev Updates the commission structure for the given _type\n   * @dev Reverts if not called by management\n   * @param _type the asset type\n   * @param _curator the curators commission\n   * @param _developer the developers commission\n   */\n  function updateCommission(string _type, uint8 _curator, uint8 _developer) external onlyKnownOrigin {\n    require(_curator > 0);\n    require(_developer > 0);\n    require((_curator + _developer) < 100);\n\n    editionTypeToCommission[_type] = CommissionStructure({curator : _curator, developer : _developer});\n  }\n\n  /**\n   * @dev Utility function for retrieving the commission structure for the provided _type\n   * @param _type the asset type\n   * @return the commission structure or zero for both values when not found\n   */\n  function getCommissionForType(string _type) public view returns (uint8 _curator, uint8 _developer) {\n    CommissionStructure storage commission = editionTypeToCommission[_type];\n    return (commission.curator, commission.developer);\n  }\n\n  /**\n   * @dev Purchase the provide token in Ether\n   * @dev Reverts if token not unsold and not available to be purchased\n   * msg.sender will become the owner of the token\n   * msg.value needs to be >= to the token priceInWei\n   * @param _tokenId the KODA token ID\n   * @return true/false depending on success\n   */\n  function purchaseWithEther(uint256 _tokenId) public payable onlyUnsold(_tokenId) onlyKnownOriginOwnedToken(_tokenId) onlyAfterPurchaseFromTime(_tokenId) {\n    require(exists(_tokenId));\n\n    uint256 priceInWei = tokenIdToPriceInWei[_tokenId];\n    require(msg.value >= priceInWei);\n\n    // approve sender as they have paid the required amount\n    _approvePurchaser(msg.sender, _tokenId);\n\n    // transfer assets from contract creator (curator) to new owner\n    safeTransferFrom(ownerOf(_tokenId), msg.sender, _tokenId);\n\n    // now purchased - don't allow re-purchase!\n    tokenIdToPurchased[_tokenId] = PurchaseState.EtherPurchase;\n\n    totalPurchaseValueInWei = totalPurchaseValueInWei.add(msg.value);\n    totalNumberOfPurchases = totalNumberOfPurchases.add(1);\n\n    // Only apply commission if the art work has value\n    if (priceInWei > 0) {\n      _applyCommission(_tokenId);\n    }\n\n    PurchasedWithEther(_tokenId, msg.sender);\n  }\n\n  /**\n   * @dev Purchase the provide token in FIAT, management command only for taking fiat payments during KODA physical exhibitions\n   * Equivalent to taking the KODA token off the market and marking as sold\n   * @dev Reverts if token not unsold and not available to be purchased and not called by management\n   * @param _tokenId the KODA token ID\n   */\n  function purchaseWithFiat(uint256 _tokenId) public onlyKnownOrigin onlyUnsold(_tokenId) onlyAfterPurchaseFromTime(_tokenId) {\n    require(exists(_tokenId));\n\n    // now purchased - don't allow re-purchase!\n    tokenIdToPurchased[_tokenId] = PurchaseState.FiatPurchase;\n\n    totalNumberOfPurchases = totalNumberOfPurchases.add(1);\n\n    PurchasedWithFiat(_tokenId);\n  }\n\n  /**\n   * @dev Reverse a fiat purchase made by calling purchaseWithFiat()\n   * @dev Reverts if token not purchased with fiat and not available to be purchased and not called by management\n   * @param _tokenId the KODA token ID\n   */\n  function reverseFiatPurchase(uint256 _tokenId) public onlyKnownOrigin onlyFiatPurchased(_tokenId) onlyAfterPurchaseFromTime(_tokenId) {\n    require(exists(_tokenId));\n\n    // reset to Unsold\n    tokenIdToPurchased[_tokenId] = PurchaseState.Unsold;\n\n    totalNumberOfPurchases = totalNumberOfPurchases.sub(1);\n\n    PurchasedWithFiatReversed(_tokenId);\n  }\n\n  /**\n   * @dev Internal function for apply commission on purchase\n   */\n  function _applyCommission(uint256 _tokenId) internal {\n    bytes16 edition = tokenIdToEdition[_tokenId];\n\n    string memory typeCode = getTypeFromEdition(edition);\n\n    CommissionStructure memory commission = editionTypeToCommission[typeCode];\n\n    // split & transfer fee for curator\n    uint curatorAccountFee = msg.value / 100 * commission.curator;\n    curatorAccount.transfer(curatorAccountFee);\n\n    // split & transfer fee for developer\n    uint developerAccountFee = msg.value / 100 * commission.developer;\n    developerAccount.transfer(developerAccountFee);\n\n    // final payment to commission would be the remaining value\n    uint finalCommissionTotal = msg.value - (curatorAccountFee + developerAccountFee);\n\n    // send ether\n    address artistAccount = editionToArtistAccount[edition];\n    artistAccount.transfer(finalCommissionTotal);\n  }\n\n  /**\n   * @dev Retrieve all asset information for the provided token\n   * @param _tokenId the KODA token ID\n   * @return tokenId, owner, purchaseState, priceInWei, purchaseFromDateTime\n   */\n  function assetInfo(uint _tokenId) public view returns (\n    uint256 _tokId,\n    address _owner,\n    PurchaseState _purchaseState,\n    uint256 _priceInWei,\n    uint32 _purchaseFromTime\n  ) {\n    return (\n      _tokenId,\n      tokenOwner[_tokenId],\n      tokenIdToPurchased[_tokenId],\n      tokenIdToPriceInWei[_tokenId],\n      tokenIdToPurchaseFromTime[_tokenId]\n    );\n  }\n\n  /**\n   * @dev Retrieve all edition information for the provided token\n   * @param _tokenId the KODA token ID\n   * @return tokenId, edition, editionNumber, tokenUri\n   */\n  function editionInfo(uint256 _tokenId) public view returns (\n    uint256 _tokId,\n    bytes16 _edition,\n    uint256 _editionNumber,\n    string _tokenURI,\n    address _artistAccount\n  ) {\n    bytes16 edition = tokenIdToEdition[_tokenId];\n    return (\n      _tokenId,\n      edition,\n      editionToEditionNumber[edition],\n      tokenURI(_tokenId),\n      editionToArtistAccount[edition]\n    );\n  }\n\n  function tokensOf(address _owner) public view returns (uint256[] _tokenIds) {\n    return ownedTokens[_owner];\n  }\n\n  /**\n   * @dev Return the total number of assets in an edition\n   * @param _edition the edition identifier\n   */\n  function numberOf(bytes16 _edition) public view returns (uint256) {\n    return editionToEditionNumber[_edition];\n  }\n\n  /**\n   * @dev Get the token purchase state for the given token\n   * @param _tokenId the KODA token ID\n   * @return the purchase sate, either 0, 1, 2, reverts if token not found\n   */\n  function isPurchased(uint256 _tokenId) public view returns (PurchaseState _purchased) {\n    require(exists(_tokenId));\n    return tokenIdToPurchased[_tokenId];\n  }\n\n  /**\n   * @dev Get the edition identifier for the given token\n   * @param _tokenId the KODA token ID\n   * @return the edition is found, reverts if token not found\n   */\n  function editionOf(uint256 _tokenId) public view returns (bytes16 _edition) {\n    require(exists(_tokenId));\n    return tokenIdToEdition[_tokenId];\n  }\n\n  /**\n   * @dev Get the purchase from time for the given token\n   * @param _tokenId the KODA token ID\n   * @return the purchased from time, reverts if token not found\n   */\n  function purchaseFromTime(uint256 _tokenId) public view returns (uint32 _purchaseFromTime) {\n    require(exists(_tokenId));\n    return tokenIdToPurchaseFromTime[_tokenId];\n  }\n\n  /**\n   * @dev Get the price in wei for the given token\n   * @param _tokenId the KODA token ID\n   * @return the price in wei, reverts if token not found\n   */\n  function priceInWei(uint256 _tokenId) public view returns (uint256 _priceInWei) {\n    require(exists(_tokenId));\n    return tokenIdToPriceInWei[_tokenId];\n  }\n\n  /**\n   * @dev Get the type for the provided edition, useful for testing purposes\n   * @param _edition the edition identifier\n   * @return the type or blank string\n   */\n  function getTypeFromEdition(bytes16 _edition) public pure returns (string) {\n    // return last 3 chars that represent the edition type\n    return Strings.bytes16ToStr(_edition, 13, 16);\n  }\n\n  /**\n   * @dev Get token URI fro the given token, useful for testing purposes\n   * @param _tokenId the KODA token ID\n   * @return the token ID or only the base URI if not found\n   */\n  function tokenURI(uint256 _tokenId) public view returns (string) {\n    return Strings.strConcat(tokenBaseURI, tokenURIs[_tokenId]);\n  }\n\n  /**\n   * @dev Allows management to update the base tokenURI path\n   * @dev Reverts if not called by management\n   * @param _newBaseURI the new base URI to set\n   */\n  function setTokenBaseURI(string _newBaseURI) external onlyKnownOrigin {\n    tokenBaseURI = _newBaseURI;\n  }\n\n  /**\n   * @dev Allows management to update the artist account (where commission is sent)\n   * @dev Reverts if not called by management\n   * @param _edition edition to adjust\n    * @param _artistAccount address of artist on blockchain\n   */\n  function setArtistAccount(bytes16 _edition, address _artistAccount) external onlyKnownOrigin {\n    require(_artistAccount != address(0));\n\n    editionToArtistAccount[_edition] = _artistAccount;\n  }\n}\n",
  "sourcePath": "/Users/jamesmorgan/Dropbox/workspace-blockrocket/known-origin-web3-marketplace/contracts/KnownOriginDigitalAsset.sol",
  "compiler": {
    "name": "solc",
    "version": "0.4.21+commit.dfe3193c.Emscripten.clang"
  },
  "schemaVersion": "2.0.0",
  "updatedAt": "2018-04-06T09:02:42.352Z"
}